{
  "_format": "hh-sol-artifact-1",
  "contractName": "AutonomixDPoS",
  "sourceName": "contracts/AutonomixDPoS.sol",
  "abi": [
    {
      "inputs": [
        {
          "internalType": "address",
          "name": "_autoxTokenAddress",
          "type": "address"
        },
        {
          "internalType": "address",
          "name": "_treasuryAddress",
          "type": "address"
        }
      ],
      "stateMutability": "nonpayable",
      "type": "constructor"
    },
    {
      "inputs": [
        {
          "internalType": "address",
          "name": "owner",
          "type": "address"
        }
      ],
      "name": "OwnableInvalidOwner",
      "type": "error"
    },
    {
      "inputs": [
        {
          "internalType": "address",
          "name": "account",
          "type": "address"
        }
      ],
      "name": "OwnableUnauthorizedAccount",
      "type": "error"
    },
    {
      "anonymous": false,
      "inputs": [
        {
          "indexed": true,
          "internalType": "address",
          "name": "submitter",
          "type": "address"
        },
        {
          "indexed": true,
          "internalType": "bytes32",
          "name": "dataHash",
          "type": "bytes32"
        }
      ],
      "name": "DataSubmitted",
      "type": "event"
    },
    {
      "anonymous": false,
      "inputs": [
        {
          "indexed": true,
          "internalType": "bytes32",
          "name": "dataHash",
          "type": "bytes32"
        },
        {
          "indexed": false,
          "internalType": "bool",
          "name": "success",
          "type": "bool"
        }
      ],
      "name": "DataVerified",
      "type": "event"
    },
    {
      "anonymous": false,
      "inputs": [
        {
          "indexed": true,
          "internalType": "address",
          "name": "previousOwner",
          "type": "address"
        },
        {
          "indexed": true,
          "internalType": "address",
          "name": "newOwner",
          "type": "address"
        }
      ],
      "name": "OwnershipTransferred",
      "type": "event"
    },
    {
      "anonymous": false,
      "inputs": [
        {
          "indexed": false,
          "internalType": "uint256",
          "name": "totalReward",
          "type": "uint256"
        },
        {
          "indexed": false,
          "internalType": "uint256",
          "name": "validatorShare",
          "type": "uint256"
        },
        {
          "indexed": false,
          "internalType": "uint256",
          "name": "delegatorShare",
          "type": "uint256"
        },
        {
          "indexed": false,
          "internalType": "uint256",
          "name": "treasuryShare",
          "type": "uint256"
        }
      ],
      "name": "RewardsDistributed",
      "type": "event"
    },
    {
      "anonymous": false,
      "inputs": [
        {
          "indexed": true,
          "internalType": "address",
          "name": "delegator",
          "type": "address"
        },
        {
          "indexed": true,
          "internalType": "address",
          "name": "delegate",
          "type": "address"
        },
        {
          "indexed": false,
          "internalType": "uint256",
          "name": "amount",
          "type": "uint256"
        }
      ],
      "name": "Staked",
      "type": "event"
    },
    {
      "anonymous": false,
      "inputs": [
        {
          "indexed": true,
          "internalType": "address",
          "name": "delegator",
          "type": "address"
        },
        {
          "indexed": true,
          "internalType": "address",
          "name": "delegate",
          "type": "address"
        },
        {
          "indexed": false,
          "internalType": "uint256",
          "name": "amount",
          "type": "uint256"
        }
      ],
      "name": "Unstaked",
      "type": "event"
    },
    {
      "anonymous": false,
      "inputs": [
        {
          "indexed": true,
          "internalType": "address",
          "name": "validator",
          "type": "address"
        },
        {
          "indexed": false,
          "internalType": "uint256",
          "name": "penalty",
          "type": "uint256"
        }
      ],
      "name": "ValidatorSlashed",
      "type": "event"
    },
    {
      "anonymous": false,
      "inputs": [
        {
          "indexed": false,
          "internalType": "address[]",
          "name": "newValidators",
          "type": "address[]"
        }
      ],
      "name": "ValidatorsElected",
      "type": "event"
    },
    {
      "inputs": [],
      "name": "DELEGATOR_REWARD_PERCENTAGE",
      "outputs": [
        {
          "internalType": "uint256",
          "name": "",
          "type": "uint256"
        }
      ],
      "stateMutability": "view",
      "type": "function"
    },
    {
      "inputs": [],
      "name": "ELECTION_PERIOD_SECONDS",
      "outputs": [
        {
          "internalType": "uint256",
          "name": "",
          "type": "uint256"
        }
      ],
      "stateMutability": "view",
      "type": "function"
    },
    {
      "inputs": [],
      "name": "MAX_VALIDATORS",
      "outputs": [
        {
          "internalType": "uint256",
          "name": "",
          "type": "uint256"
        }
      ],
      "stateMutability": "view",
      "type": "function"
    },
    {
      "inputs": [],
      "name": "TREASURY_REWARD_PERCENTAGE",
      "outputs": [
        {
          "internalType": "uint256",
          "name": "",
          "type": "uint256"
        }
      ],
      "stateMutability": "view",
      "type": "function"
    },
    {
      "inputs": [],
      "name": "VALIDATOR_REWARD_PERCENTAGE",
      "outputs": [
        {
          "internalType": "uint256",
          "name": "",
          "type": "uint256"
        }
      ],
      "stateMutability": "view",
      "type": "function"
    },
    {
      "inputs": [
        {
          "internalType": "address",
          "name": "_validatorAddress",
          "type": "address"
        }
      ],
      "name": "addTestValidator",
      "outputs": [],
      "stateMutability": "nonpayable",
      "type": "function"
    },
    {
      "inputs": [],
      "name": "autoxToken",
      "outputs": [
        {
          "internalType": "contract AUTOXToken",
          "name": "",
          "type": "address"
        }
      ],
      "stateMutability": "view",
      "type": "function"
    },
    {
      "inputs": [
        {
          "internalType": "uint256",
          "name": "",
          "type": "uint256"
        }
      ],
      "name": "currentValidators",
      "outputs": [
        {
          "internalType": "address",
          "name": "",
          "type": "address"
        }
      ],
      "stateMutability": "view",
      "type": "function"
    },
    {
      "inputs": [
        {
          "internalType": "bytes32",
          "name": "",
          "type": "bytes32"
        }
      ],
      "name": "dataSubmissions",
      "outputs": [
        {
          "internalType": "address",
          "name": "submitter",
          "type": "address"
        },
        {
          "internalType": "bytes32",
          "name": "dataHash",
          "type": "bytes32"
        },
        {
          "internalType": "bool",
          "name": "verified",
          "type": "bool"
        }
      ],
      "stateMutability": "view",
      "type": "function"
    },
    {
      "inputs": [
        {
          "internalType": "address",
          "name": "",
          "type": "address"
        }
      ],
      "name": "delegates",
      "outputs": [
        {
          "internalType": "uint256",
          "name": "totalStaked",
          "type": "uint256"
        },
        {
          "internalType": "bool",
          "name": "isValidator",
          "type": "bool"
        },
        {
          "internalType": "uint256",
          "name": "totalRewards",
          "type": "uint256"
        }
      ],
      "stateMutability": "view",
      "type": "function"
    },
    {
      "inputs": [],
      "name": "distributeRewards",
      "outputs": [],
      "stateMutability": "nonpayable",
      "type": "function"
    },
    {
      "inputs": [],
      "name": "electValidators",
      "outputs": [],
      "stateMutability": "nonpayable",
      "type": "function"
    },
    {
      "inputs": [],
      "name": "getCurrentValidators",
      "outputs": [
        {
          "internalType": "address[]",
          "name": "",
          "type": "address[]"
        }
      ],
      "stateMutability": "view",
      "type": "function"
    },
    {
      "inputs": [
        {
          "internalType": "address",
          "name": "_delegate",
          "type": "address"
        }
      ],
      "name": "getDelegateTotalStaked",
      "outputs": [
        {
          "internalType": "uint256",
          "name": "",
          "type": "uint256"
        }
      ],
      "stateMutability": "view",
      "type": "function"
    },
    {
      "inputs": [
        {
          "internalType": "address",
          "name": "_delegate",
          "type": "address"
        },
        {
          "internalType": "address",
          "name": "_delegator",
          "type": "address"
        }
      ],
      "name": "getDelegatorStake",
      "outputs": [
        {
          "internalType": "uint256",
          "name": "",
          "type": "uint256"
        }
      ],
      "stateMutability": "view",
      "type": "function"
    },
    {
      "inputs": [],
      "name": "getRegisteredDelegates",
      "outputs": [
        {
          "internalType": "address[]",
          "name": "",
          "type": "address[]"
        }
      ],
      "stateMutability": "view",
      "type": "function"
    },
    {
      "inputs": [
        {
          "internalType": "address",
          "name": "_addr",
          "type": "address"
        }
      ],
      "name": "isCurrentValidator",
      "outputs": [
        {
          "internalType": "bool",
          "name": "",
          "type": "bool"
        }
      ],
      "stateMutability": "view",
      "type": "function"
    },
    {
      "inputs": [],
      "name": "lastElectionTime",
      "outputs": [
        {
          "internalType": "uint256",
          "name": "",
          "type": "uint256"
        }
      ],
      "stateMutability": "view",
      "type": "function"
    },
    {
      "inputs": [],
      "name": "owner",
      "outputs": [
        {
          "internalType": "address",
          "name": "",
          "type": "address"
        }
      ],
      "stateMutability": "view",
      "type": "function"
    },
    {
      "inputs": [
        {
          "internalType": "uint256",
          "name": "",
          "type": "uint256"
        }
      ],
      "name": "registeredDelegates",
      "outputs": [
        {
          "internalType": "address",
          "name": "",
          "type": "address"
        }
      ],
      "stateMutability": "view",
      "type": "function"
    },
    {
      "inputs": [],
      "name": "renounceOwnership",
      "outputs": [],
      "stateMutability": "nonpayable",
      "type": "function"
    },
    {
      "inputs": [
        {
          "internalType": "address",
          "name": "",
          "type": "address"
        }
      ],
      "name": "reputation",
      "outputs": [
        {
          "internalType": "uint256",
          "name": "",
          "type": "uint256"
        }
      ],
      "stateMutability": "view",
      "type": "function"
    },
    {
      "inputs": [
        {
          "internalType": "address",
          "name": "_validator",
          "type": "address"
        },
        {
          "internalType": "uint256",
          "name": "_penalty",
          "type": "uint256"
        }
      ],
      "name": "slashValidator",
      "outputs": [],
      "stateMutability": "nonpayable",
      "type": "function"
    },
    {
      "inputs": [
        {
          "internalType": "address",
          "name": "_delegate",
          "type": "address"
        },
        {
          "internalType": "uint256",
          "name": "_amount",
          "type": "uint256"
        }
      ],
      "name": "stake",
      "outputs": [],
      "stateMutability": "nonpayable",
      "type": "function"
    },
    {
      "inputs": [
        {
          "internalType": "bytes32",
          "name": "_dataHash",
          "type": "bytes32"
        }
      ],
      "name": "submitData",
      "outputs": [],
      "stateMutability": "nonpayable",
      "type": "function"
    },
    {
      "inputs": [
        {
          "internalType": "address",
          "name": "newOwner",
          "type": "address"
        }
      ],
      "name": "transferOwnership",
      "outputs": [],
      "stateMutability": "nonpayable",
      "type": "function"
    },
    {
      "inputs": [],
      "name": "treasuryAddress",
      "outputs": [
        {
          "internalType": "address",
          "name": "",
          "type": "address"
        }
      ],
      "stateMutability": "view",
      "type": "function"
    },
    {
      "inputs": [
        {
          "internalType": "address",
          "name": "_delegate",
          "type": "address"
        },
        {
          "internalType": "uint256",
          "name": "_amount",
          "type": "uint256"
        }
      ],
      "name": "unstake",
      "outputs": [],
      "stateMutability": "nonpayable",
      "type": "function"
    },
    {
      "inputs": [
        {
          "internalType": "bytes32",
          "name": "_dataHash",
          "type": "bytes32"
        },
        {
          "internalType": "bool",
          "name": "_valid",
          "type": "bool"
        }
      ],
      "name": "verifyData",
      "outputs": [],
      "stateMutability": "nonpayable",
      "type": "function"
    }
  ],
  "bytecode": "0x60806040523480156200001157600080fd5b5060405162003d4f38038062003d4f83398181016040528101906200003791906200027e565b33600073ffffffffffffffffffffffffffffffffffffffff168173ffffffffffffffffffffffffffffffffffffffff1603620000ad5760006040517f1e4fbdf7000000000000000000000000000000000000000000000000000000008152600401620000a49190620002d6565b60405180910390fd5b620000be816200015060201b60201c565b5081600160006101000a81548173ffffffffffffffffffffffffffffffffffffffff021916908373ffffffffffffffffffffffffffffffffffffffff16021790555080600660006101000a81548173ffffffffffffffffffffffffffffffffffffffff021916908373ffffffffffffffffffffffffffffffffffffffff160217905550426005819055505050620002f3565b60008060009054906101000a900473ffffffffffffffffffffffffffffffffffffffff169050816000806101000a81548173ffffffffffffffffffffffffffffffffffffffff021916908373ffffffffffffffffffffffffffffffffffffffff1602179055508173ffffffffffffffffffffffffffffffffffffffff168173ffffffffffffffffffffffffffffffffffffffff167f8be0079c531659141344cd1fd0a4f28419497f9722a3daafe3b4186f6b6457e060405160405180910390a35050565b600080fd5b600073ffffffffffffffffffffffffffffffffffffffff82169050919050565b6000620002468262000219565b9050919050565b620002588162000239565b81146200026457600080fd5b50565b60008151905062000278816200024d565b92915050565b6000806040838503121562000298576200029762000214565b5b6000620002a88582860162000267565b9250506020620002bb8582860162000267565b9150509250929050565b620002d08162000239565b82525050565b6000602082019050620002ed6000830184620002c5565b92915050565b613a4c80620003036000396000f3fe608060405234801561001057600080fd5b50600436106101cf5760003560e01c8063900eb5a811610104578063bb985d7d116100a2578063cbafc40f11610071578063cbafc40f14610510578063cd928de91461052e578063d1a89fde1461054c578063f2fde38b14610568576101cf565b8063bb985d7d1461049c578063c2a672e0146104b8578063c5f956af146104d4578063c5f9dff0146104f2576101cf565b8063adc9772e116100de578063adc9772e14610416578063b28b494614610432578063b3bdcb9814610450578063b9f794511461046c576101cf565b8063900eb5a81461039857806396ee7894146103c85780639d0b5e58146103e6576101cf565b806363b800f211610171578063715018a61161014b578063715018a61461030e5780637e80b0951461031857806382c98de9146103485780638da5cb5b1461037a576101cf565b806363b800f2146102c85780636f4a2cd0146102e6578063714897df146102f0576101cf565b80635028e2e1116101ad5780635028e2e114610218578063539964c61461024857806355614fcc14610266578063587cde1e14610296576101cf565b80630b64f1ff146101d45780630eb1b586146101de5780633e4208ef146101fc575b600080fd5b6101dc610584565b005b6101e6610b52565b6040516101f39190612a96565b60405180910390f35b61021660048036038101906102119190612b40565b610b58565b005b610232600480360381019061022d9190612b80565b610e30565b60405161023f9190612a96565b60405180910390f35b610250610eba565b60405161025d9190612a96565b60405180910390f35b610280600480360381019061027b9190612bc0565b610ebf565b60405161028d9190612c08565b60405180910390f35b6102b060048036038101906102ab9190612bc0565b610f6d565b6040516102bf93929190612c23565b60405180910390f35b6102d0610fa4565b6040516102dd9190612cb9565b60405180910390f35b6102ee610fca565b005b6102f861153e565b6040516103059190612a96565b60405180910390f35b610316611543565b005b610332600480360381019061032d9190612bc0565b611557565b60405161033f9190612a96565b60405180910390f35b610362600480360381019061035d9190612d0a565b6115a3565b60405161037193929190612d55565b60405180910390f35b6103826115fa565b60405161038f9190612d8c565b60405180910390f35b6103b260048036038101906103ad9190612da7565b611623565b6040516103bf9190612d8c565b60405180910390f35b6103d0611662565b6040516103dd9190612e92565b60405180910390f35b61040060048036038101906103fb9190612da7565b6116f0565b60405161040d9190612d8c565b60405180910390f35b610430600480360381019061042b9190612b40565b61172f565b005b61043a611ae5565b6040516104479190612a96565b60405180910390f35b61046a60048036038101906104659190612ee0565b611aec565b005b61048660048036038101906104819190612bc0565b611d69565b6040516104939190612a96565b60405180910390f35b6104b660048036038101906104b19190612d0a565b611d81565b005b6104d260048036038101906104cd9190612b40565b611ec8565b005b6104dc6123dc565b6040516104e99190612d8c565b60405180910390f35b6104fa612402565b6040516105079190612e92565b60405180910390f35b610518612490565b6040516105259190612a96565b60405180910390f35b610536612495565b6040516105439190612a96565b60405180910390f35b61056660048036038101906105619190612bc0565b61249a565b005b610582600480360381019061057d9190612bc0565b61261d565b005b61058c6126a3565b6000600380549050116105d4576040517f08c379a00000000000000000000000000000000000000000000000000000000081526004016105cb90612f7d565b60405180910390fd5b60005b60048054905081101561069057600060026000600484815481106105fe576105fd612f9d565b5b9060005260206000200160009054906101000a900473ffffffffffffffffffffffffffffffffffffffff1673ffffffffffffffffffffffffffffffffffffffff1673ffffffffffffffffffffffffffffffffffffffff16815260200190815260200160002060020160006101000a81548160ff021916908315150217905550808061068890612ffb565b9150506105d7565b50600067ffffffffffffffff8111156106ac576106ab613043565b5b6040519080825280602002602001820160405280156106da5781602001602082028036833780820191505090505b50600490805190602001906106f09291906129d6565b506000600380549050905060008167ffffffffffffffff81111561071757610716613043565b5b6040519080825280602002602001820160405280156107455781602001602082028036833780820191505090505b50905060005b828110156107f2576003818154811061076757610766612f9d565b5b9060005260206000200160009054906101000a900473ffffffffffffffffffffffffffffffffffffffff168282815181106107a5576107a4612f9d565b5b602002602001019073ffffffffffffffffffffffffffffffffffffffff16908173ffffffffffffffffffffffffffffffffffffffff168152505080806107ea90612ffb565b91505061074b565b5060005b828110156109e757600081905060006001836108129190613072565b90505b848110156108f4576002600085848151811061083457610833612f9d565b5b602002602001015173ffffffffffffffffffffffffffffffffffffffff1673ffffffffffffffffffffffffffffffffffffffff168152602001908152602001600020600001546002600086848151811061089157610890612f9d565b5b602002602001015173ffffffffffffffffffffffffffffffffffffffff1673ffffffffffffffffffffffffffffffffffffffff1681526020019081526020016000206000015411156108e1578091505b80806108ec90612ffb565b915050610815565b508181146109d357600083838151811061091157610910612f9d565b5b6020026020010151905083828151811061092e5761092d612f9d565b5b602002602001015184848151811061094957610948612f9d565b5b602002602001019073ffffffffffffffffffffffffffffffffffffffff16908173ffffffffffffffffffffffffffffffffffffffff16815250508084838151811061099757610996612f9d565b5b602002602001019073ffffffffffffffffffffffffffffffffffffffff16908173ffffffffffffffffffffffffffffffffffffffff1681525050505b5080806109df90612ffb565b9150506107f6565b506000601583106109f95760156109fb565b825b905060005b81811015610b0d576004838281518110610a1d57610a1c612f9d565b5b60200260200101519080600181540180825580915050600190039060005260206000200160009091909190916101000a81548173ffffffffffffffffffffffffffffffffffffffff021916908373ffffffffffffffffffffffffffffffffffffffff160217905550600160026000858481518110610a9e57610a9d612f9d565b5b602002602001015173ffffffffffffffffffffffffffffffffffffffff1673ffffffffffffffffffffffffffffffffffffffff16815260200190815260200160002060020160006101000a81548160ff0219169083151502179055508080610b0590612ffb565b915050610a00565b50426005819055507f9f22bcf9ed8374df04282369326796a9739365b05bded9ea71a762beece470ff6004604051610b459190613192565b60405180910390a1505050565b60055481565b610b606126a3565b80600260008473ffffffffffffffffffffffffffffffffffffffff1673ffffffffffffffffffffffffffffffffffffffff168152602001908152602001600020600001541015610be5576040517f08c379a0000000000000000000000000000000000000000000000000000000008152600401610bdc90613200565b60405180910390fd5b80600260008473ffffffffffffffffffffffffffffffffffffffff1673ffffffffffffffffffffffffffffffffffffffff1681526020019081526020016000206000016000828254610c379190613220565b92505081905550600160009054906101000a900473ffffffffffffffffffffffffffffffffffffffff1673ffffffffffffffffffffffffffffffffffffffff1663a9059cbb600660009054906101000a900473ffffffffffffffffffffffffffffffffffffffff16836040518363ffffffff1660e01b8152600401610cbd929190613254565b6020604051808303816000875af1158015610cdc573d6000803e3d6000fd5b505050506040513d601f19601f82011682018060405250810190610d009190613292565b610d3f576040517f08c379a0000000000000000000000000000000000000000000000000000000008152600401610d369061330b565b60405180910390fd5b6032600860008473ffffffffffffffffffffffffffffffffffffffff1673ffffffffffffffffffffffffffffffffffffffff1681526020019081526020016000205410610dde576032600860008473ffffffffffffffffffffffffffffffffffffffff1673ffffffffffffffffffffffffffffffffffffffff1681526020019081526020016000206000828254610dd69190613220565b925050819055505b8173ffffffffffffffffffffffffffffffffffffffff167f17bddadfd7ec8898c3b9eadd0cf5ae77ba8d5df3a50e96ab86ec2dd711aa8fbb82604051610e249190612a96565b60405180910390a25050565b6000600260008473ffffffffffffffffffffffffffffffffffffffff1673ffffffffffffffffffffffffffffffffffffffff16815260200190815260200160002060010160008373ffffffffffffffffffffffffffffffffffffffff1673ffffffffffffffffffffffffffffffffffffffff16815260200190815260200160002054905092915050565b601481565b600080600090505b600480549050811015610f62578273ffffffffffffffffffffffffffffffffffffffff1660048281548110610eff57610efe612f9d565b5b9060005260206000200160009054906101000a900473ffffffffffffffffffffffffffffffffffffffff1673ffffffffffffffffffffffffffffffffffffffff1603610f4f576001915050610f68565b8080610f5a90612ffb565b915050610ec7565b50600090505b919050565b60026020528060005260406000206000915090508060000154908060020160009054906101000a900460ff16908060030154905083565b600160009054906101000a900473ffffffffffffffffffffffffffffffffffffffff1681565b6000600a600160009054906101000a900473ffffffffffffffffffffffffffffffffffffffff1673ffffffffffffffffffffffffffffffffffffffff166370a08231306040518263ffffffff1660e01b81526004016110299190612d8c565b602060405180830381865afa158015611046573d6000803e3d6000fd5b505050506040513d601f19601f8201168201806040525081019061106a9190613340565b611074919061339c565b9050600081116110b9576040517f08c379a00000000000000000000000000000000000000000000000000000000081526004016110b090613419565b60405180910390fd5b600060646046836110ca9190613439565b6110d4919061339c565b9050600060646014846110e79190613439565b6110f1919061339c565b905060006064600a856111049190613439565b61110e919061339c565b9050600160009054906101000a900473ffffffffffffffffffffffffffffffffffffffff1673ffffffffffffffffffffffffffffffffffffffff1663a9059cbb600660009054906101000a900473ffffffffffffffffffffffffffffffffffffffff16836040518363ffffffff1660e01b815260040161118f929190613254565b6020604051808303816000875af11580156111ae573d6000803e3d6000fd5b505050506040513d601f19601f820116820180604052508101906111d29190613292565b611211576040517f08c379a0000000000000000000000000000000000000000000000000000000008152600401611208906134c7565b60405180910390fd5b6000805b6004805490508110156112c357600260006004838154811061123a57611239612f9d565b5b9060005260206000200160009054906101000a900473ffffffffffffffffffffffffffffffffffffffff1673ffffffffffffffffffffffffffffffffffffffff1673ffffffffffffffffffffffffffffffffffffffff16815260200190815260200160002060000154826112ae9190613072565b915080806112bb90612ffb565b915050611215565b5060005b6004805490508110156114f9576000600482815481106112ea576112e9612f9d565b5b9060005260206000200160009054906101000a900473ffffffffffffffffffffffffffffffffffffffff1690506000600260008373ffffffffffffffffffffffffffffffffffffffff1673ffffffffffffffffffffffffffffffffffffffff168152602001908152602001600020600001549050600084828961136d9190613439565b611377919061339c565b905060008583896113889190613439565b611392919061339c565b9050600160009054906101000a900473ffffffffffffffffffffffffffffffffffffffff1673ffffffffffffffffffffffffffffffffffffffff1663a9059cbb8583856113df9190613072565b6040518363ffffffff1660e01b81526004016113fc929190613254565b6020604051808303816000875af115801561141b573d6000803e3d6000fd5b505050506040513d601f19601f8201168201806040525081019061143f9190613292565b61147e576040517f08c379a000000000000000000000000000000000000000000000000000000000815260040161147590613533565b60405180910390fd5b808261148a9190613072565b600260008673ffffffffffffffffffffffffffffffffffffffff1673ffffffffffffffffffffffffffffffffffffffff16815260200190815260200160002060030160008282546114db9190613072565b925050819055505050505080806114f190612ffb565b9150506112c7565b507ff05b0b8458b89503ca56b18429a7b1ecd2f7f2d6d5eba936da3791b6b078bc788585858560405161152f9493929190613553565b60405180910390a15050505050565b601581565b61154b6126a3565b611555600061272a565b565b6000600260008373ffffffffffffffffffffffffffffffffffffffff1673ffffffffffffffffffffffffffffffffffffffff168152602001908152602001600020600001549050919050565b60076020528060005260406000206000915090508060000160009054906101000a900473ffffffffffffffffffffffffffffffffffffffff16908060010154908060020160009054906101000a900460ff16905083565b60008060009054906101000a900473ffffffffffffffffffffffffffffffffffffffff16905090565b6004818154811061163357600080fd5b906000526020600020016000915054906101000a900473ffffffffffffffffffffffffffffffffffffffff1681565b606060038054806020026020016040519081016040528092919081815260200182805480156116e657602002820191906000526020600020905b8160009054906101000a900473ffffffffffffffffffffffffffffffffffffffff1673ffffffffffffffffffffffffffffffffffffffff168152602001906001019080831161169c575b5050505050905090565b6003818154811061170057600080fd5b906000526020600020016000915054906101000a900473ffffffffffffffffffffffffffffffffffffffff1681565b60008111611772576040517f08c379a00000000000000000000000000000000000000000000000000000000081526004016117699061360a565b60405180910390fd5b600160009054906101000a900473ffffffffffffffffffffffffffffffffffffffff1673ffffffffffffffffffffffffffffffffffffffff166323b872dd3330846040518463ffffffff1660e01b81526004016117d19392919061362a565b6020604051808303816000875af11580156117f0573d6000803e3d6000fd5b505050506040513d601f19601f820116820180604052508101906118149190613292565b611853576040517f08c379a000000000000000000000000000000000000000000000000000000000815260040161184a906136ad565b60405180910390fd5b6000600260008473ffffffffffffffffffffffffffffffffffffffff1673ffffffffffffffffffffffffffffffffffffffff1681526020019081526020016000206000015414801561192457506000600260008473ffffffffffffffffffffffffffffffffffffffff1673ffffffffffffffffffffffffffffffffffffffff16815260200190815260200160002060010160003373ffffffffffffffffffffffffffffffffffffffff1673ffffffffffffffffffffffffffffffffffffffff16815260200190815260200160002054145b1561198d576003829080600181540180825580915050600190039060005260206000200160009091909190916101000a81548173ffffffffffffffffffffffffffffffffffffffff021916908373ffffffffffffffffffffffffffffffffffffffff1602179055505b80600260008473ffffffffffffffffffffffffffffffffffffffff1673ffffffffffffffffffffffffffffffffffffffff16815260200190815260200160002060000160008282546119df9190613072565b9250508190555080600260008473ffffffffffffffffffffffffffffffffffffffff1673ffffffffffffffffffffffffffffffffffffffff16815260200190815260200160002060010160003373ffffffffffffffffffffffffffffffffffffffff1673ffffffffffffffffffffffffffffffffffffffff1681526020019081526020016000206000828254611a759190613072565b925050819055508173ffffffffffffffffffffffffffffffffffffffff163373ffffffffffffffffffffffffffffffffffffffff167f5dac0c1b1112564a045ba943c9d50270893e8e826c49be8e7073adc713ab7bd783604051611ad99190612a96565b60405180910390a35050565b62093a8081565b600260003373ffffffffffffffffffffffffffffffffffffffff1673ffffffffffffffffffffffffffffffffffffffff16815260200190815260200160002060020160009054906101000a900460ff16611b7b576040517f08c379a0000000000000000000000000000000000000000000000000000000008152600401611b7290613719565b60405180910390fd5b600073ffffffffffffffffffffffffffffffffffffffff166007600084815260200190815260200160002060000160009054906101000a900473ffffffffffffffffffffffffffffffffffffffff1673ffffffffffffffffffffffffffffffffffffffff1603611c20576040517f08c379a0000000000000000000000000000000000000000000000000000000008152600401611c1790613785565b60405180910390fd5b6007600083815260200190815260200160002060020160009054906101000a900460ff1615611c84576040517f08c379a0000000000000000000000000000000000000000000000000000000008152600401611c7b906137f1565b60405180910390fd5b60016007600084815260200190815260200160002060020160006101000a81548160ff0219169083151502179055508015611cc957611cc43360016127ee565b611d2d565b611cd43360006127ee565b611d2c33600a600260003373ffffffffffffffffffffffffffffffffffffffff1673ffffffffffffffffffffffffffffffffffffffff16815260200190815260200160002060000154611d27919061339c565b610b58565b5b817fee7761497838e6fe8aa3859ef53f7e3842149851e8064fc426810583049304a282604051611d5d9190612c08565b60405180910390a25050565b60086020528060005260406000206000915090505481565b6000801b8103611dc6576040517f08c379a0000000000000000000000000000000000000000000000000000000008152600401611dbd9061385d565b60405180910390fd5b60405180606001604052803373ffffffffffffffffffffffffffffffffffffffff168152602001828152602001600015158152506007600083815260200190815260200160002060008201518160000160006101000a81548173ffffffffffffffffffffffffffffffffffffffff021916908373ffffffffffffffffffffffffffffffffffffffff1602179055506020820151816001015560408201518160020160006101000a81548160ff021916908315150217905550905050803373ffffffffffffffffffffffffffffffffffffffff167f138e8be20fb477316c82e05a0e2a8048c6e71923256d9e2393c5e8c3d8d8eacd60405160405180910390a350565b60008111611f0b576040517f08c379a0000000000000000000000000000000000000000000000000000000008152600401611f02906138ef565b60405180910390fd5b80600260008473ffffffffffffffffffffffffffffffffffffffff1673ffffffffffffffffffffffffffffffffffffffff16815260200190815260200160002060010160003373ffffffffffffffffffffffffffffffffffffffff1673ffffffffffffffffffffffffffffffffffffffff168152602001908152602001600020541015611fcd576040517f08c379a0000000000000000000000000000000000000000000000000000000008152600401611fc49061395b565b60405180910390fd5b80600260008473ffffffffffffffffffffffffffffffffffffffff1673ffffffffffffffffffffffffffffffffffffffff168152602001908152602001600020600001600082825461201f9190613220565b9250508190555080600260008473ffffffffffffffffffffffffffffffffffffffff1673ffffffffffffffffffffffffffffffffffffffff16815260200190815260200160002060010160003373ffffffffffffffffffffffffffffffffffffffff1673ffffffffffffffffffffffffffffffffffffffff16815260200190815260200160002060008282546120b59190613220565b92505081905550600160009054906101000a900473ffffffffffffffffffffffffffffffffffffffff1673ffffffffffffffffffffffffffffffffffffffff1663a9059cbb33836040518363ffffffff1660e01b8152600401612119929190613254565b6020604051808303816000875af1158015612138573d6000803e3d6000fd5b505050506040513d601f19601f8201168201806040525081019061215c9190613292565b61219b576040517f08c379a0000000000000000000000000000000000000000000000000000000008152600401612192906136ad565b60405180910390fd5b8173ffffffffffffffffffffffffffffffffffffffff163373ffffffffffffffffffffffffffffffffffffffff167fd8654fcc8cf5b36d30b3f5e4688fc78118e6d68de60b9994e09902268b57c3e3836040516121f89190612a96565b60405180910390a36000600260008473ffffffffffffffffffffffffffffffffffffffff1673ffffffffffffffffffffffffffffffffffffffff16815260200190815260200160002060000154036123d85760005b6003805490508110156123d6578273ffffffffffffffffffffffffffffffffffffffff166003828154811061228557612284612f9d565b5b9060005260206000200160009054906101000a900473ffffffffffffffffffffffffffffffffffffffff1673ffffffffffffffffffffffffffffffffffffffff16036123c357600360016003805490506122df9190613220565b815481106122f0576122ef612f9d565b5b9060005260206000200160009054906101000a900473ffffffffffffffffffffffffffffffffffffffff166003828154811061232f5761232e612f9d565b5b9060005260206000200160006101000a81548173ffffffffffffffffffffffffffffffffffffffff021916908373ffffffffffffffffffffffffffffffffffffffff16021790555060038054806123895761238861397b565b5b6001900381819060005260206000200160006101000a81549073ffffffffffffffffffffffffffffffffffffffff021916905590556123d6565b80806123ce90612ffb565b91505061224d565b505b5050565b600660009054906101000a900473ffffffffffffffffffffffffffffffffffffffff1681565b6060600480548060200260200160405190810160405280929190818152602001828054801561248657602002820191906000526020600020905b8160009054906101000a900473ffffffffffffffffffffffffffffffffffffffff1673ffffffffffffffffffffffffffffffffffffffff168152602001906001019080831161243c575b5050505050905090565b600a81565b604681565b6124a26126a3565b600073ffffffffffffffffffffffffffffffffffffffff168173ffffffffffffffffffffffffffffffffffffffff1603612511576040517f08c379a0000000000000000000000000000000000000000000000000000000008152600401612508906139f6565b60405180910390fd5b6000600260008373ffffffffffffffffffffffffffffffffffffffff1673ffffffffffffffffffffffffffffffffffffffff16815260200190815260200160002060000154036125bf576003819080600181540180825580915050600190039060005260206000200160009091909190916101000a81548173ffffffffffffffffffffffffffffffffffffffff021916908373ffffffffffffffffffffffffffffffffffffffff1602179055505b6001600260008373ffffffffffffffffffffffffffffffffffffffff1673ffffffffffffffffffffffffffffffffffffffff16815260200190815260200160002060020160006101000a81548160ff02191690831515021790555050565b6126256126a3565b600073ffffffffffffffffffffffffffffffffffffffff168173ffffffffffffffffffffffffffffffffffffffff16036126975760006040517f1e4fbdf700000000000000000000000000000000000000000000000000000000815260040161268e9190612d8c565b60405180910390fd5b6126a08161272a565b50565b6126ab6129ce565b73ffffffffffffffffffffffffffffffffffffffff166126c96115fa565b73ffffffffffffffffffffffffffffffffffffffff1614612728576126ec6129ce565b6040517f118cdaa700000000000000000000000000000000000000000000000000000000815260040161271f9190612d8c565b60405180910390fd5b565b60008060009054906101000a900473ffffffffffffffffffffffffffffffffffffffff169050816000806101000a81548173ffffffffffffffffffffffffffffffffffffffff021916908373ffffffffffffffffffffffffffffffffffffffff1602179055508173ffffffffffffffffffffffffffffffffffffffff168173ffffffffffffffffffffffffffffffffffffffff167f8be0079c531659141344cd1fd0a4f28419497f9722a3daafe3b4186f6b6457e060405160405180910390a35050565b80156128e057600a600860008473ffffffffffffffffffffffffffffffffffffffff1673ffffffffffffffffffffffffffffffffffffffff16815260200190815260200160002060008282546128449190613072565b925050819055506103e8600860008473ffffffffffffffffffffffffffffffffffffffff1673ffffffffffffffffffffffffffffffffffffffff1681526020019081526020016000205411156128db576103e8600860008473ffffffffffffffffffffffffffffffffffffffff1673ffffffffffffffffffffffffffffffffffffffff168152602001908152602001600020819055505b6129ca565b6014600860008473ffffffffffffffffffffffffffffffffffffffff1673ffffffffffffffffffffffffffffffffffffffff1681526020019081526020016000205410612983576014600860008473ffffffffffffffffffffffffffffffffffffffff1673ffffffffffffffffffffffffffffffffffffffff16815260200190815260200160002060008282546129779190613220565b925050819055506129c9565b6000600860008473ffffffffffffffffffffffffffffffffffffffff1673ffffffffffffffffffffffffffffffffffffffff168152602001908152602001600020819055505b5b5050565b600033905090565b828054828255906000526020600020908101928215612a4f579160200282015b82811115612a4e5782518260006101000a81548173ffffffffffffffffffffffffffffffffffffffff021916908373ffffffffffffffffffffffffffffffffffffffff160217905550916020019190600101906129f6565b5b509050612a5c9190612a60565b5090565b5b80821115612a79576000816000905550600101612a61565b5090565b6000819050919050565b612a9081612a7d565b82525050565b6000602082019050612aab6000830184612a87565b92915050565b600080fd5b600073ffffffffffffffffffffffffffffffffffffffff82169050919050565b6000612ae182612ab6565b9050919050565b612af181612ad6565b8114612afc57600080fd5b50565b600081359050612b0e81612ae8565b92915050565b612b1d81612a7d565b8114612b2857600080fd5b50565b600081359050612b3a81612b14565b92915050565b60008060408385031215612b5757612b56612ab1565b5b6000612b6585828601612aff565b9250506020612b7685828601612b2b565b9150509250929050565b60008060408385031215612b9757612b96612ab1565b5b6000612ba585828601612aff565b9250506020612bb685828601612aff565b9150509250929050565b600060208284031215612bd657612bd5612ab1565b5b6000612be484828501612aff565b91505092915050565b60008115159050919050565b612c0281612bed565b82525050565b6000602082019050612c1d6000830184612bf9565b92915050565b6000606082019050612c386000830186612a87565b612c456020830185612bf9565b612c526040830184612a87565b949350505050565b6000819050919050565b6000612c7f612c7a612c7584612ab6565b612c5a565b612ab6565b9050919050565b6000612c9182612c64565b9050919050565b6000612ca382612c86565b9050919050565b612cb381612c98565b82525050565b6000602082019050612cce6000830184612caa565b92915050565b6000819050919050565b612ce781612cd4565b8114612cf257600080fd5b50565b600081359050612d0481612cde565b92915050565b600060208284031215612d2057612d1f612ab1565b5b6000612d2e84828501612cf5565b91505092915050565b612d4081612ad6565b82525050565b612d4f81612cd4565b82525050565b6000606082019050612d6a6000830186612d37565b612d776020830185612d46565b612d846040830184612bf9565b949350505050565b6000602082019050612da16000830184612d37565b92915050565b600060208284031215612dbd57612dbc612ab1565b5b6000612dcb84828501612b2b565b91505092915050565b600081519050919050565b600082825260208201905092915050565b6000819050602082019050919050565b612e0981612ad6565b82525050565b6000612e1b8383612e00565b60208301905092915050565b6000602082019050919050565b6000612e3f82612dd4565b612e498185612ddf565b9350612e5483612df0565b8060005b83811015612e85578151612e6c8882612e0f565b9750612e7783612e27565b925050600181019050612e58565b5085935050505092915050565b60006020820190508181036000830152612eac8184612e34565b905092915050565b612ebd81612bed565b8114612ec857600080fd5b50565b600081359050612eda81612eb4565b92915050565b60008060408385031215612ef757612ef6612ab1565b5b6000612f0585828601612cf5565b9250506020612f1685828601612ecb565b9150509250929050565b600082825260208201905092915050565b7f4e6f2064656c6567617465732072656769737465726564000000000000000000600082015250565b6000612f67601783612f20565b9150612f7282612f31565b602082019050919050565b60006020820190508181036000830152612f9681612f5a565b9050919050565b7f4e487b7100000000000000000000000000000000000000000000000000000000600052603260045260246000fd5b7f4e487b7100000000000000000000000000000000000000000000000000000000600052601160045260246000fd5b600061300682612a7d565b91507fffffffffffffffffffffffffffffffffffffffffffffffffffffffffffffffff820361303857613037612fcc565b5b600182019050919050565b7f4e487b7100000000000000000000000000000000000000000000000000000000600052604160045260246000fd5b600061307d82612a7d565b915061308883612a7d565b92508282019050808211156130a05761309f612fcc565b5b92915050565b600081549050919050565b60008190508160005260206000209050919050565b60008160001c9050919050565b600073ffffffffffffffffffffffffffffffffffffffff82169050919050565b6000613106613101836130c6565b6130d3565b9050919050565b600061311982546130f3565b9050919050565b6000600182019050919050565b6000613138826130a6565b6131428185612ddf565b935061314d836130b1565b8060005b83811015613185576131628261310d565b61316c8882612e0f565b975061317783613120565b925050600181019050613151565b5085935050505092915050565b600060208201905081810360008301526131ac818461312d565b905092915050565b7f496e73756666696369656e74207374616b6520746f20736c6173680000000000600082015250565b60006131ea601b83612f20565b91506131f5826131b4565b602082019050919050565b60006020820190508181036000830152613219816131dd565b9050919050565b600061322b82612a7d565b915061323683612a7d565b925082820390508181111561324e5761324d612fcc565b5b92915050565b60006040820190506132696000830185612d37565b6132766020830184612a87565b9392505050565b60008151905061328c81612eb4565b92915050565b6000602082840312156132a8576132a7612ab1565b5b60006132b68482850161327d565b91505092915050565b7f536c617368207472616e73666572206661696c65640000000000000000000000600082015250565b60006132f5601583612f20565b9150613300826132bf565b602082019050919050565b60006020820190508181036000830152613324816132e8565b9050919050565b60008151905061333a81612b14565b92915050565b60006020828403121561335657613355612ab1565b5b60006133648482850161332b565b91505092915050565b7f4e487b7100000000000000000000000000000000000000000000000000000000600052601260045260246000fd5b60006133a782612a7d565b91506133b283612a7d565b9250826133c2576133c161336d565b5b828204905092915050565b7f4e6f207265776172647320746f20646973747269627574650000000000000000600082015250565b6000613403601883612f20565b915061340e826133cd565b602082019050919050565b60006020820190508181036000830152613432816133f6565b9050919050565b600061344482612a7d565b915061344f83612a7d565b925082820261345d81612a7d565b9150828204841483151761347457613473612fcc565b5b5092915050565b7f5472656173757279207472616e73666572206661696c65640000000000000000600082015250565b60006134b1601883612f20565b91506134bc8261347b565b602082019050919050565b600060208201905081810360008301526134e0816134a4565b9050919050565b7f526577617264207472616e73666572206661696c656400000000000000000000600082015250565b600061351d601683612f20565b9150613528826134e7565b602082019050919050565b6000602082019050818103600083015261354c81613510565b9050919050565b60006080820190506135686000830187612a87565b6135756020830186612a87565b6135826040830185612a87565b61358f6060830184612a87565b95945050505050565b7f5374616b6520616d6f756e74206d75737420626520677265617465722074686160008201527f6e207a65726f0000000000000000000000000000000000000000000000000000602082015250565b60006135f4602683612f20565b91506135ff82613598565b604082019050919050565b60006020820190508181036000830152613623816135e7565b9050919050565b600060608201905061363f6000830186612d37565b61364c6020830185612d37565b6136596040830184612a87565b949350505050565b7f546f6b656e207472616e73666572206661696c65640000000000000000000000600082015250565b6000613697601583612f20565b91506136a282613661565b602082019050919050565b600060208201905081810360008301526136c68161368a565b9050919050565b7f4f6e6c792076616c696461746f722063616e2076657269667900000000000000600082015250565b6000613703601983612f20565b915061370e826136cd565b602082019050919050565b60006020820190508181036000830152613732816136f6565b9050919050565b7f44617461206e6f7420666f756e64000000000000000000000000000000000000600082015250565b600061376f600e83612f20565b915061377a82613739565b602082019050919050565b6000602082019050818103600083015261379e81613762565b9050919050565b7f416c726561647920766572696669656400000000000000000000000000000000600082015250565b60006137db601083612f20565b91506137e6826137a5565b602082019050919050565b6000602082019050818103600083015261380a816137ce565b9050919050565b7f496e76616c696420646174612068617368000000000000000000000000000000600082015250565b6000613847601183612f20565b915061385282613811565b602082019050919050565b600060208201905081810360008301526138768161383a565b9050919050565b7f556e7374616b6520616d6f756e74206d7573742062652067726561746572207460008201527f68616e207a65726f000000000000000000000000000000000000000000000000602082015250565b60006138d9602883612f20565b91506138e48261387d565b604082019050919050565b60006020820190508181036000830152613908816138cc565b9050919050565b7f496e73756666696369656e74207374616b656420616d6f756e74000000000000600082015250565b6000613945601a83612f20565b91506139508261390f565b602082019050919050565b6000602082019050818103600083015261397481613938565b9050919050565b7f4e487b7100000000000000000000000000000000000000000000000000000000600052603160045260246000fd5b7f496e76616c696420616464726573730000000000000000000000000000000000600082015250565b60006139e0600f83612f20565b91506139eb826139aa565b602082019050919050565b60006020820190508181036000830152613a0f816139d3565b905091905056fea264697066735822122019430197775b6b8212ac0920172b3ed49f9028eb3a4613f5e22b985b849f385564736f6c63430008140033",
  "linkReferences": {},
  "deployedLinkReferences": {}
}