{
  "_format": "hh-sol-artifact-1",
  "contractName": "AutonomixDataSharing",
  "sourceName": "contracts/AutonomixDataShare.sol",
  "abi": [
    {
      "inputs": [
        {
          "internalType": "address",
          "name": "_dposAddress",
          "type": "address"
        }
      ],
      "stateMutability": "nonpayable",
      "type": "constructor"
    },
    {
      "inputs": [
        {
          "internalType": "address",
          "name": "owner",
          "type": "address"
        }
      ],
      "name": "OwnableInvalidOwner",
      "type": "error"
    },
    {
      "inputs": [
        {
          "internalType": "address",
          "name": "account",
          "type": "address"
        }
      ],
      "name": "OwnableUnauthorizedAccount",
      "type": "error"
    },
    {
      "anonymous": false,
      "inputs": [
        {
          "indexed": true,
          "internalType": "uint256",
          "name": "blockId",
          "type": "uint256"
        },
        {
          "indexed": true,
          "internalType": "address",
          "name": "validator",
          "type": "address"
        },
        {
          "indexed": false,
          "internalType": "bytes32",
          "name": "dataHash",
          "type": "bytes32"
        },
        {
          "indexed": false,
          "internalType": "uint256",
          "name": "timestamp",
          "type": "uint256"
        }
      ],
      "name": "BlockCreated",
      "type": "event"
    },
    {
      "anonymous": false,
      "inputs": [
        {
          "indexed": true,
          "internalType": "address",
          "name": "car",
          "type": "address"
        },
        {
          "indexed": true,
          "internalType": "bytes32",
          "name": "dataHash",
          "type": "bytes32"
        },
        {
          "indexed": false,
          "internalType": "string",
          "name": "metadata",
          "type": "string"
        }
      ],
      "name": "DataUploaded",
      "type": "event"
    },
    {
      "anonymous": false,
      "inputs": [
        {
          "indexed": true,
          "internalType": "bytes32",
          "name": "dataHash",
          "type": "bytes32"
        },
        {
          "indexed": false,
          "internalType": "bool",
          "name": "verified",
          "type": "bool"
        }
      ],
      "name": "DataValidated",
      "type": "event"
    },
    {
      "anonymous": false,
      "inputs": [
        {
          "indexed": true,
          "internalType": "address",
          "name": "previousOwner",
          "type": "address"
        },
        {
          "indexed": true,
          "internalType": "address",
          "name": "newOwner",
          "type": "address"
        }
      ],
      "name": "OwnershipTransferred",
      "type": "event"
    },
    {
      "anonymous": false,
      "inputs": [
        {
          "indexed": true,
          "internalType": "address",
          "name": "validator",
          "type": "address"
        }
      ],
      "name": "ValidatorRegistered",
      "type": "event"
    },
    {
      "inputs": [
        {
          "internalType": "uint256",
          "name": "",
          "type": "uint256"
        }
      ],
      "name": "allDataHashes",
      "outputs": [
        {
          "internalType": "bytes32",
          "name": "",
          "type": "bytes32"
        }
      ],
      "stateMutability": "view",
      "type": "function"
    },
    {
      "inputs": [
        {
          "internalType": "bytes32",
          "name": "",
          "type": "bytes32"
        }
      ],
      "name": "dataRecords",
      "outputs": [
        {
          "internalType": "address",
          "name": "carAddress",
          "type": "address"
        },
        {
          "internalType": "string",
          "name": "metadata",
          "type": "string"
        },
        {
          "internalType": "bytes32",
          "name": "dataHash",
          "type": "bytes32"
        },
        {
          "internalType": "uint256",
          "name": "timestamp",
          "type": "uint256"
        },
        {
          "internalType": "bool",
          "name": "verified",
          "type": "bool"
        }
      ],
      "stateMutability": "view",
      "type": "function"
    },
    {
      "inputs": [],
      "name": "dposContract",
      "outputs": [
        {
          "internalType": "contract AutonomixDPoS",
          "name": "",
          "type": "address"
        }
      ],
      "stateMutability": "view",
      "type": "function"
    },
    {
      "inputs": [],
      "name": "getAllData",
      "outputs": [
        {
          "components": [
            {
              "internalType": "address",
              "name": "carAddress",
              "type": "address"
            },
            {
              "internalType": "string",
              "name": "metadata",
              "type": "string"
            },
            {
              "internalType": "bytes32",
              "name": "dataHash",
              "type": "bytes32"
            },
            {
              "internalType": "uint256",
              "name": "timestamp",
              "type": "uint256"
            },
            {
              "internalType": "bool",
              "name": "verified",
              "type": "bool"
            }
          ],
          "internalType": "struct AutonomixDataSharing.DataBlock[]",
          "name": "",
          "type": "tuple[]"
        }
      ],
      "stateMutability": "view",
      "type": "function"
    },
    {
      "inputs": [],
      "name": "getValidators",
      "outputs": [
        {
          "internalType": "address[]",
          "name": "",
          "type": "address[]"
        }
      ],
      "stateMutability": "view",
      "type": "function"
    },
    {
      "inputs": [
        {
          "internalType": "bytes32",
          "name": "_dataHash",
          "type": "bytes32"
        },
        {
          "internalType": "bool",
          "name": "_verified",
          "type": "bool"
        }
      ],
      "name": "markDataVerified",
      "outputs": [],
      "stateMutability": "nonpayable",
      "type": "function"
    },
    {
      "inputs": [],
      "name": "owner",
      "outputs": [
        {
          "internalType": "address",
          "name": "",
          "type": "address"
        }
      ],
      "stateMutability": "view",
      "type": "function"
    },
    {
      "inputs": [
        {
          "internalType": "address",
          "name": "_validator",
          "type": "address"
        }
      ],
      "name": "registerValidator",
      "outputs": [],
      "stateMutability": "nonpayable",
      "type": "function"
    },
    {
      "inputs": [],
      "name": "renounceOwnership",
      "outputs": [],
      "stateMutability": "nonpayable",
      "type": "function"
    },
    {
      "inputs": [
        {
          "internalType": "address",
          "name": "newOwner",
          "type": "address"
        }
      ],
      "name": "transferOwnership",
      "outputs": [],
      "stateMutability": "nonpayable",
      "type": "function"
    },
    {
      "inputs": [
        {
          "internalType": "string",
          "name": "_metadata",
          "type": "string"
        },
        {
          "internalType": "bytes32",
          "name": "_dataHash",
          "type": "bytes32"
        }
      ],
      "name": "uploadData",
      "outputs": [],
      "stateMutability": "nonpayable",
      "type": "function"
    },
    {
      "inputs": [
        {
          "internalType": "uint256",
          "name": "",
          "type": "uint256"
        }
      ],
      "name": "validatorList",
      "outputs": [
        {
          "internalType": "address",
          "name": "",
          "type": "address"
        }
      ],
      "stateMutability": "view",
      "type": "function"
    },
    {
      "inputs": [
        {
          "internalType": "address",
          "name": "",
          "type": "address"
        }
      ],
      "name": "validators",
      "outputs": [
        {
          "internalType": "bool",
          "name": "",
          "type": "bool"
        }
      ],
      "stateMutability": "view",
      "type": "function"
    }
  ],
  "bytecode": "0x60806040523480156200001157600080fd5b5060405162001fa738038062001fa78339818101604052810190620000379190620002a7565b33600073ffffffffffffffffffffffffffffffffffffffff168173ffffffffffffffffffffffffffffffffffffffff1603620000ad5760006040517f1e4fbdf7000000000000000000000000000000000000000000000000000000008152600401620000a49190620002ea565b60405180910390fd5b620000be816200017960201b60201c565b50600073ffffffffffffffffffffffffffffffffffffffff168173ffffffffffffffffffffffffffffffffffffffff160362000131576040517f08c379a0000000000000000000000000000000000000000000000000000000008152600401620001289062000368565b60405180910390fd5b80600160006101000a81548173ffffffffffffffffffffffffffffffffffffffff021916908373ffffffffffffffffffffffffffffffffffffffff160217905550506200038a565b60008060009054906101000a900473ffffffffffffffffffffffffffffffffffffffff169050816000806101000a81548173ffffffffffffffffffffffffffffffffffffffff021916908373ffffffffffffffffffffffffffffffffffffffff1602179055508173ffffffffffffffffffffffffffffffffffffffff168173ffffffffffffffffffffffffffffffffffffffff167f8be0079c531659141344cd1fd0a4f28419497f9722a3daafe3b4186f6b6457e060405160405180910390a35050565b600080fd5b600073ffffffffffffffffffffffffffffffffffffffff82169050919050565b60006200026f8262000242565b9050919050565b620002818162000262565b81146200028d57600080fd5b50565b600081519050620002a18162000276565b92915050565b600060208284031215620002c057620002bf6200023d565b5b6000620002d08482850162000290565b91505092915050565b620002e48162000262565b82525050565b6000602082019050620003016000830184620002d9565b92915050565b600082825260208201905092915050565b7f496e76616c69642044506f5320636f6e74726163742061646472657373000000600082015250565b600062000350601d8362000307565b91506200035d8262000318565b602082019050919050565b60006020820190508181036000830152620003838162000341565b9050919050565b611c0d806200039a6000396000f3fe608060405234801561001057600080fd5b50600436106100cf5760003560e01c8063b048e0561161008c578063f2fde38b11610066578063f2fde38b146101ee578063f47037bb1461020a578063fa52c7d814610226578063fce0590d14610256576100cf565b8063b048e05614610182578063b7ab4db5146101b2578063e1fb9ae2146101d0576100cf565b80631b2a1d40146100d45780632d10fa28146100f0578063715018a61461010e5780638573bb8e146101185780638da5cb5b146101485780639fca516914610166575b600080fd5b6100ee60048036038101906100e99190610ed4565b61028a565b005b6100f86103b1565b6040516101059190611154565b60405180910390f35b6101166105ac565b005b610132600480360381019061012d91906111a2565b6105c0565b60405161013f91906111de565b60405180910390f35b6101506105e4565b60405161015d9190611208565b60405180910390f35b610180600480360381019061017b919061124f565b61060d565b005b61019c600480360381019061019791906111a2565b6107a3565b6040516101a99190611208565b60405180910390f35b6101ba6107e2565b6040516101c7919061132b565b60405180910390f35b6101d8610870565b6040516101e591906113ac565b60405180910390f35b6102086004803603810190610203919061124f565b610896565b005b610224600480360381019061021f91906114fc565b61091c565b005b610240600480360381019061023b919061124f565b610baa565b60405161024d9190611567565b60405180910390f35b610270600480360381019061026b9190611582565b610bca565b604051610281959493929190611608565b60405180910390f35b610292610cb5565b60006002600084815260200190815260200160002060030154036102eb576040517f08c379a00000000000000000000000000000000000000000000000000000000081526004016102e2906116ae565b60405180910390fd5b806002600084815260200190815260200160002060040160006101000a81548160ff021916908315150217905550600060038054905090503373ffffffffffffffffffffffffffffffffffffffff16817f7dcbb2652ca73d2801853b2912f7e54b723d013ac9c4c085dd8e0c941ebf9026854260405161036c9291906116ce565b60405180910390a3827f9e68398c94bd1c813a49cf1bbd15b40674c1bf5b1126b782472f1801e944c04f836040516103a49190611567565b60405180910390a2505050565b6060600060038054905067ffffffffffffffff8111156103d4576103d36113d1565b5b60405190808252806020026020018201604052801561040d57816020015b6103fa610e08565b8152602001906001900390816103f25790505b50905060005b6003805490508110156105a4576002600060038381548110610438576104376116f7565b5b906000526020600020015481526020019081526020016000206040518060a00160405290816000820160009054906101000a900473ffffffffffffffffffffffffffffffffffffffff1673ffffffffffffffffffffffffffffffffffffffff1673ffffffffffffffffffffffffffffffffffffffff1681526020016001820180546104c290611755565b80601f01602080910402602001604051908101604052809291908181526020018280546104ee90611755565b801561053b5780601f106105105761010080835404028352916020019161053b565b820191906000526020600020905b81548152906001019060200180831161051e57829003601f168201915b5050505050815260200160028201548152602001600382015481526020016004820160009054906101000a900460ff161515151581525050828281518110610586576105856116f7565b5b6020026020010181905250808061059c906117b5565b915050610413565b508091505090565b6105b4610cb5565b6105be6000610d3c565b565b600381815481106105d057600080fd5b906000526020600020016000915090505481565b60008060009054906101000a900473ffffffffffffffffffffffffffffffffffffffff16905090565b610615610cb5565b600460008273ffffffffffffffffffffffffffffffffffffffff1673ffffffffffffffffffffffffffffffffffffffff16815260200190815260200160002060009054906101000a900460ff16156106a2576040517f08c379a000000000000000000000000000000000000000000000000000000000815260040161069990611849565b60405180910390fd5b6001600460008373ffffffffffffffffffffffffffffffffffffffff1673ffffffffffffffffffffffffffffffffffffffff16815260200190815260200160002060006101000a81548160ff0219169083151502179055506005819080600181540180825580915050600190039060005260206000200160009091909190916101000a81548173ffffffffffffffffffffffffffffffffffffffff021916908373ffffffffffffffffffffffffffffffffffffffff1602179055508073ffffffffffffffffffffffffffffffffffffffff167fd09501348473474a20c772c79c653e1fd7e8b437e418fe235d277d2c8885325160405160405180910390a250565b600581815481106107b357600080fd5b906000526020600020016000915054906101000a900473ffffffffffffffffffffffffffffffffffffffff1681565b6060600580548060200260200160405190810160405280929190818152602001828054801561086657602002820191906000526020600020905b8160009054906101000a900473ffffffffffffffffffffffffffffffffffffffff1673ffffffffffffffffffffffffffffffffffffffff168152602001906001019080831161081c575b5050505050905090565b600160009054906101000a900473ffffffffffffffffffffffffffffffffffffffff1681565b61089e610cb5565b600073ffffffffffffffffffffffffffffffffffffffff168173ffffffffffffffffffffffffffffffffffffffff16036109105760006040517f1e4fbdf70000000000000000000000000000000000000000000000000000000081526004016109079190611208565b60405180910390fd5b61091981610d3c565b50565b6000801b8103610961576040517f08c379a0000000000000000000000000000000000000000000000000000000008152600401610958906118b5565b60405180910390fd5b60006002600083815260200190815260200160002060030154146109ba576040517f08c379a00000000000000000000000000000000000000000000000000000000081526004016109b190611921565b60405180910390fd5b6040518060a001604052803373ffffffffffffffffffffffffffffffffffffffff168152602001838152602001828152602001428152602001600015158152506002600083815260200190815260200160002060008201518160000160006101000a81548173ffffffffffffffffffffffffffffffffffffffff021916908373ffffffffffffffffffffffffffffffffffffffff1602179055506020820151816001019081610a699190611ae3565b50604082015181600201556060820151816003015560808201518160040160006101000a81548160ff0219169083151502179055509050506003819080600181540180825580915050600190039060005260206000200160009091909190915055600160009054906101000a900473ffffffffffffffffffffffffffffffffffffffff1673ffffffffffffffffffffffffffffffffffffffff1663bb985d7d826040518263ffffffff1660e01b8152600401610b2591906111de565b600060405180830381600087803b158015610b3f57600080fd5b505af1158015610b53573d6000803e3d6000fd5b50505050803373ffffffffffffffffffffffffffffffffffffffff167f7336136b437173458f840c243884ab1f4cebc69db04107f1e1f0e260c1dd30a584604051610b9e9190611bb5565b60405180910390a35050565b60046020528060005260406000206000915054906101000a900460ff1681565b60026020528060005260406000206000915090508060000160009054906101000a900473ffffffffffffffffffffffffffffffffffffffff1690806001018054610c1390611755565b80601f0160208091040260200160405190810160405280929190818152602001828054610c3f90611755565b8015610c8c5780601f10610c6157610100808354040283529160200191610c8c565b820191906000526020600020905b815481529060010190602001808311610c6f57829003601f168201915b5050505050908060020154908060030154908060040160009054906101000a900460ff16905085565b610cbd610e00565b73ffffffffffffffffffffffffffffffffffffffff16610cdb6105e4565b73ffffffffffffffffffffffffffffffffffffffff1614610d3a57610cfe610e00565b6040517f118cdaa7000000000000000000000000000000000000000000000000000000008152600401610d319190611208565b60405180910390fd5b565b60008060009054906101000a900473ffffffffffffffffffffffffffffffffffffffff169050816000806101000a81548173ffffffffffffffffffffffffffffffffffffffff021916908373ffffffffffffffffffffffffffffffffffffffff1602179055508173ffffffffffffffffffffffffffffffffffffffff168173ffffffffffffffffffffffffffffffffffffffff167f8be0079c531659141344cd1fd0a4f28419497f9722a3daafe3b4186f6b6457e060405160405180910390a35050565b600033905090565b6040518060a00160405280600073ffffffffffffffffffffffffffffffffffffffff1681526020016060815260200160008019168152602001600081526020016000151581525090565b6000604051905090565b600080fd5b600080fd5b6000819050919050565b610e7981610e66565b8114610e8457600080fd5b50565b600081359050610e9681610e70565b92915050565b60008115159050919050565b610eb181610e9c565b8114610ebc57600080fd5b50565b600081359050610ece81610ea8565b92915050565b60008060408385031215610eeb57610eea610e5c565b5b6000610ef985828601610e87565b9250506020610f0a85828601610ebf565b9150509250929050565b600081519050919050565b600082825260208201905092915050565b6000819050602082019050919050565b600073ffffffffffffffffffffffffffffffffffffffff82169050919050565b6000610f6b82610f40565b9050919050565b610f7b81610f60565b82525050565b600081519050919050565b600082825260208201905092915050565b60005b83811015610fbb578082015181840152602081019050610fa0565b60008484015250505050565b6000601f19601f8301169050919050565b6000610fe382610f81565b610fed8185610f8c565b9350610ffd818560208601610f9d565b61100681610fc7565b840191505092915050565b61101a81610e66565b82525050565b6000819050919050565b61103381611020565b82525050565b61104281610e9c565b82525050565b600060a0830160008301516110606000860182610f72565b50602083015184820360208601526110788282610fd8565b915050604083015161108d6040860182611011565b5060608301516110a0606086018261102a565b5060808301516110b36080860182611039565b508091505092915050565b60006110ca8383611048565b905092915050565b6000602082019050919050565b60006110ea82610f14565b6110f48185610f1f565b93508360208202850161110685610f30565b8060005b85811015611142578484038952815161112385826110be565b945061112e836110d2565b925060208a0199505060018101905061110a565b50829750879550505050505092915050565b6000602082019050818103600083015261116e81846110df565b905092915050565b61117f81611020565b811461118a57600080fd5b50565b60008135905061119c81611176565b92915050565b6000602082840312156111b8576111b7610e5c565b5b60006111c68482850161118d565b91505092915050565b6111d881610e66565b82525050565b60006020820190506111f360008301846111cf565b92915050565b61120281610f60565b82525050565b600060208201905061121d60008301846111f9565b92915050565b61122c81610f60565b811461123757600080fd5b50565b60008135905061124981611223565b92915050565b60006020828403121561126557611264610e5c565b5b60006112738482850161123a565b91505092915050565b600081519050919050565b600082825260208201905092915050565b6000819050602082019050919050565b60006112b48383610f72565b60208301905092915050565b6000602082019050919050565b60006112d88261127c565b6112e28185611287565b93506112ed83611298565b8060005b8381101561131e57815161130588826112a8565b9750611310836112c0565b9250506001810190506112f1565b5085935050505092915050565b6000602082019050818103600083015261134581846112cd565b905092915050565b6000819050919050565b600061137261136d61136884610f40565b61134d565b610f40565b9050919050565b600061138482611357565b9050919050565b600061139682611379565b9050919050565b6113a68161138b565b82525050565b60006020820190506113c1600083018461139d565b92915050565b600080fd5b600080fd5b7f4e487b7100000000000000000000000000000000000000000000000000000000600052604160045260246000fd5b61140982610fc7565b810181811067ffffffffffffffff82111715611428576114276113d1565b5b80604052505050565b600061143b610e52565b90506114478282611400565b919050565b600067ffffffffffffffff821115611467576114666113d1565b5b61147082610fc7565b9050602081019050919050565b82818337600083830152505050565b600061149f61149a8461144c565b611431565b9050828152602081018484840111156114bb576114ba6113cc565b5b6114c684828561147d565b509392505050565b600082601f8301126114e3576114e26113c7565b5b81356114f384826020860161148c565b91505092915050565b6000806040838503121561151357611512610e5c565b5b600083013567ffffffffffffffff81111561153157611530610e61565b5b61153d858286016114ce565b925050602061154e85828601610e87565b9150509250929050565b61156181610e9c565b82525050565b600060208201905061157c6000830184611558565b92915050565b60006020828403121561159857611597610e5c565b5b60006115a684828501610e87565b91505092915050565b600082825260208201905092915050565b60006115cb82610f81565b6115d581856115af565b93506115e5818560208601610f9d565b6115ee81610fc7565b840191505092915050565b61160281611020565b82525050565b600060a08201905061161d60008301886111f9565b818103602083015261162f81876115c0565b905061163e60408301866111cf565b61164b60608301856115f9565b6116586080830184611558565b9695505050505050565b7f44617461206e6f7420666f756e64000000000000000000000000000000000000600082015250565b6000611698600e836115af565b91506116a382611662565b602082019050919050565b600060208201905081810360008301526116c78161168b565b9050919050565b60006040820190506116e360008301856111cf565b6116f060208301846115f9565b9392505050565b7f4e487b7100000000000000000000000000000000000000000000000000000000600052603260045260246000fd5b7f4e487b7100000000000000000000000000000000000000000000000000000000600052602260045260246000fd5b6000600282049050600182168061176d57607f821691505b6020821081036117805761177f611726565b5b50919050565b7f4e487b7100000000000000000000000000000000000000000000000000000000600052601160045260246000fd5b60006117c082611020565b91507fffffffffffffffffffffffffffffffffffffffffffffffffffffffffffffffff82036117f2576117f1611786565b5b600182019050919050565b7f416c726561647920726567697374657265640000000000000000000000000000600082015250565b60006118336012836115af565b915061183e826117fd565b602082019050919050565b6000602082019050818103600083015261186281611826565b9050919050565b7f496e76616c696420686173680000000000000000000000000000000000000000600082015250565b600061189f600c836115af565b91506118aa82611869565b602082019050919050565b600060208201905081810360008301526118ce81611892565b9050919050565b7f4461746120616c72656164792075706c6f616465640000000000000000000000600082015250565b600061190b6015836115af565b9150611916826118d5565b602082019050919050565b6000602082019050818103600083015261193a816118fe565b9050919050565b60008190508160005260206000209050919050565b60006020601f8301049050919050565b600082821b905092915050565b6000600883026119a37fffffffffffffffffffffffffffffffffffffffffffffffffffffffffffffffff82611966565b6119ad8683611966565b95508019841693508086168417925050509392505050565b60006119e06119db6119d684611020565b61134d565b611020565b9050919050565b6000819050919050565b6119fa836119c5565b611a0e611a06826119e7565b848454611973565b825550505050565b600090565b611a23611a16565b611a2e8184846119f1565b505050565b5b81811015611a5257611a47600082611a1b565b600181019050611a34565b5050565b601f821115611a9757611a6881611941565b611a7184611956565b81016020851015611a80578190505b611a94611a8c85611956565b830182611a33565b50505b505050565b600082821c905092915050565b6000611aba60001984600802611a9c565b1980831691505092915050565b6000611ad38383611aa9565b9150826002028217905092915050565b611aec82610f81565b67ffffffffffffffff811115611b0557611b046113d1565b5b611b0f8254611755565b611b1a828285611a56565b600060209050601f831160018114611b4d5760008415611b3b578287015190505b611b458582611ac7565b865550611bad565b601f198416611b5b86611941565b60005b82811015611b8357848901518255600182019150602085019450602081019050611b5e565b86831015611ba05784890151611b9c601f891682611aa9565b8355505b6001600288020188555050505b505050505050565b60006020820190508181036000830152611bcf81846115c0565b90509291505056fea2646970667358221220c63eaed7b508184f1c9f56777e357458dd50d53aea6bfd91d5cd9da7f7fc982d64736f6c63430008140033",
  "linkReferences": {},
  "deployedLinkReferences": {}
}