{
  "_format": "hh-sol-artifact-1",
  "contractName": "AutonomixDPoS",
  "sourceName": "contracts/AutonomixDPoS.sol",
  "abi": [
    {
      "inputs": [
        {
          "internalType": "address",
          "name": "_autoxTokenAddress",
          "type": "address"
        },
        {
          "internalType": "address",
          "name": "_treasuryAddress",
          "type": "address"
        }
      ],
      "stateMutability": "nonpayable",
      "type": "constructor"
    },
    {
      "inputs": [
        {
          "internalType": "address",
          "name": "owner",
          "type": "address"
        }
      ],
      "name": "OwnableInvalidOwner",
      "type": "error"
    },
    {
      "inputs": [
        {
          "internalType": "address",
          "name": "account",
          "type": "address"
        }
      ],
      "name": "OwnableUnauthorizedAccount",
      "type": "error"
    },
    {
      "anonymous": false,
      "inputs": [
        {
          "indexed": true,
          "internalType": "address",
          "name": "submitter",
          "type": "address"
        },
        {
          "indexed": true,
          "internalType": "bytes32",
          "name": "dataHash",
          "type": "bytes32"
        }
      ],
      "name": "DataSubmitted",
      "type": "event"
    },
    {
      "anonymous": false,
      "inputs": [
        {
          "indexed": true,
          "internalType": "bytes32",
          "name": "dataHash",
          "type": "bytes32"
        },
        {
          "indexed": false,
          "internalType": "bool",
          "name": "success",
          "type": "bool"
        }
      ],
      "name": "DataVerified",
      "type": "event"
    },
    {
      "anonymous": false,
      "inputs": [
        {
          "indexed": true,
          "internalType": "address",
          "name": "previousOwner",
          "type": "address"
        },
        {
          "indexed": true,
          "internalType": "address",
          "name": "newOwner",
          "type": "address"
        }
      ],
      "name": "OwnershipTransferred",
      "type": "event"
    },
    {
      "anonymous": false,
      "inputs": [
        {
          "indexed": false,
          "internalType": "uint256",
          "name": "totalReward",
          "type": "uint256"
        },
        {
          "indexed": false,
          "internalType": "uint256",
          "name": "validatorShare",
          "type": "uint256"
        },
        {
          "indexed": false,
          "internalType": "uint256",
          "name": "delegatorShare",
          "type": "uint256"
        },
        {
          "indexed": false,
          "internalType": "uint256",
          "name": "treasuryShare",
          "type": "uint256"
        }
      ],
      "name": "RewardsDistributed",
      "type": "event"
    },
    {
      "anonymous": false,
      "inputs": [
        {
          "indexed": true,
          "internalType": "address",
          "name": "delegator",
          "type": "address"
        },
        {
          "indexed": true,
          "internalType": "address",
          "name": "delegate",
          "type": "address"
        },
        {
          "indexed": false,
          "internalType": "uint256",
          "name": "amount",
          "type": "uint256"
        }
      ],
      "name": "Staked",
      "type": "event"
    },
    {
      "anonymous": false,
      "inputs": [
        {
          "indexed": true,
          "internalType": "address",
          "name": "delegator",
          "type": "address"
        },
        {
          "indexed": true,
          "internalType": "address",
          "name": "delegate",
          "type": "address"
        },
        {
          "indexed": false,
          "internalType": "uint256",
          "name": "amount",
          "type": "uint256"
        }
      ],
      "name": "Unstaked",
      "type": "event"
    },
    {
      "anonymous": false,
      "inputs": [
        {
          "indexed": true,
          "internalType": "address",
          "name": "validator",
          "type": "address"
        },
        {
          "indexed": false,
          "internalType": "uint256",
          "name": "penalty",
          "type": "uint256"
        }
      ],
      "name": "ValidatorSlashed",
      "type": "event"
    },
    {
      "anonymous": false,
      "inputs": [
        {
          "indexed": false,
          "internalType": "address[]",
          "name": "newValidators",
          "type": "address[]"
        }
      ],
      "name": "ValidatorsElected",
      "type": "event"
    },
    {
      "inputs": [],
      "name": "CONSENSUS_PERCENTAGE",
      "outputs": [
        {
          "internalType": "uint256",
          "name": "",
          "type": "uint256"
        }
      ],
      "stateMutability": "view",
      "type": "function"
    },
    {
      "inputs": [],
      "name": "DELEGATOR_REWARD_PERCENTAGE",
      "outputs": [
        {
          "internalType": "uint256",
          "name": "",
          "type": "uint256"
        }
      ],
      "stateMutability": "view",
      "type": "function"
    },
    {
      "inputs": [],
      "name": "ELECTION_PERIOD_SECONDS",
      "outputs": [
        {
          "internalType": "uint256",
          "name": "",
          "type": "uint256"
        }
      ],
      "stateMutability": "view",
      "type": "function"
    },
    {
      "inputs": [],
      "name": "EPOCH_LENGTH",
      "outputs": [
        {
          "internalType": "uint256",
          "name": "",
          "type": "uint256"
        }
      ],
      "stateMutability": "view",
      "type": "function"
    },
    {
      "inputs": [],
      "name": "MAX_VALIDATORS",
      "outputs": [
        {
          "internalType": "uint256",
          "name": "",
          "type": "uint256"
        }
      ],
      "stateMutability": "view",
      "type": "function"
    },
    {
      "inputs": [],
      "name": "TREASURY_REWARD_PERCENTAGE",
      "outputs": [
        {
          "internalType": "uint256",
          "name": "",
          "type": "uint256"
        }
      ],
      "stateMutability": "view",
      "type": "function"
    },
    {
      "inputs": [],
      "name": "VALIDATOR_REWARD_PERCENTAGE",
      "outputs": [
        {
          "internalType": "uint256",
          "name": "",
          "type": "uint256"
        }
      ],
      "stateMutability": "view",
      "type": "function"
    },
    {
      "inputs": [
        {
          "internalType": "address",
          "name": "_validatorAddress",
          "type": "address"
        }
      ],
      "name": "addTestValidator",
      "outputs": [],
      "stateMutability": "nonpayable",
      "type": "function"
    },
    {
      "inputs": [],
      "name": "autoxToken",
      "outputs": [
        {
          "internalType": "contract AUTOXToken",
          "name": "",
          "type": "address"
        }
      ],
      "stateMutability": "view",
      "type": "function"
    },
    {
      "inputs": [
        {
          "internalType": "uint256",
          "name": "",
          "type": "uint256"
        }
      ],
      "name": "currentValidators",
      "outputs": [
        {
          "internalType": "address",
          "name": "",
          "type": "address"
        }
      ],
      "stateMutability": "view",
      "type": "function"
    },
    {
      "inputs": [
        {
          "internalType": "bytes32",
          "name": "",
          "type": "bytes32"
        }
      ],
      "name": "dataSubmissions",
      "outputs": [
        {
          "internalType": "address",
          "name": "submitter",
          "type": "address"
        },
        {
          "internalType": "bytes32",
          "name": "dataHash",
          "type": "bytes32"
        },
        {
          "internalType": "bool",
          "name": "verified",
          "type": "bool"
        }
      ],
      "stateMutability": "view",
      "type": "function"
    },
    {
      "inputs": [
        {
          "internalType": "address",
          "name": "",
          "type": "address"
        }
      ],
      "name": "delegates",
      "outputs": [
        {
          "internalType": "uint256",
          "name": "totalStaked",
          "type": "uint256"
        },
        {
          "internalType": "bool",
          "name": "isValidator",
          "type": "bool"
        },
        {
          "internalType": "uint256",
          "name": "totalRewards",
          "type": "uint256"
        }
      ],
      "stateMutability": "view",
      "type": "function"
    },
    {
      "inputs": [],
      "name": "distributeRewards",
      "outputs": [],
      "stateMutability": "nonpayable",
      "type": "function"
    },
    {
      "inputs": [],
      "name": "electValidators",
      "outputs": [],
      "stateMutability": "nonpayable",
      "type": "function"
    },
    {
      "inputs": [
        {
          "internalType": "bytes32",
          "name": "",
          "type": "bytes32"
        }
      ],
      "name": "falseVoteCount",
      "outputs": [
        {
          "internalType": "uint256",
          "name": "",
          "type": "uint256"
        }
      ],
      "stateMutability": "view",
      "type": "function"
    },
    {
      "inputs": [],
      "name": "getCurrentValidators",
      "outputs": [
        {
          "internalType": "address[]",
          "name": "",
          "type": "address[]"
        }
      ],
      "stateMutability": "view",
      "type": "function"
    },
    {
      "inputs": [
        {
          "internalType": "address",
          "name": "_delegate",
          "type": "address"
        }
      ],
      "name": "getDelegateTotalStaked",
      "outputs": [
        {
          "internalType": "uint256",
          "name": "",
          "type": "uint256"
        }
      ],
      "stateMutability": "view",
      "type": "function"
    },
    {
      "inputs": [
        {
          "internalType": "address",
          "name": "_delegate",
          "type": "address"
        },
        {
          "internalType": "address",
          "name": "_delegator",
          "type": "address"
        }
      ],
      "name": "getDelegatorStake",
      "outputs": [
        {
          "internalType": "uint256",
          "name": "",
          "type": "uint256"
        }
      ],
      "stateMutability": "view",
      "type": "function"
    },
    {
      "inputs": [],
      "name": "getPendingData",
      "outputs": [
        {
          "internalType": "bytes32[]",
          "name": "",
          "type": "bytes32[]"
        }
      ],
      "stateMutability": "view",
      "type": "function"
    },
    {
      "inputs": [],
      "name": "getRegisteredDelegates",
      "outputs": [
        {
          "internalType": "address[]",
          "name": "",
          "type": "address[]"
        }
      ],
      "stateMutability": "view",
      "type": "function"
    },
    {
      "inputs": [
        {
          "internalType": "bytes32",
          "name": "_dataHash",
          "type": "bytes32"
        }
      ],
      "name": "getVerificationStatus",
      "outputs": [
        {
          "internalType": "bool",
          "name": "verified",
          "type": "bool"
        },
        {
          "internalType": "uint256",
          "name": "voteCount",
          "type": "uint256"
        },
        {
          "internalType": "uint256",
          "name": "trueVotes",
          "type": "uint256"
        },
        {
          "internalType": "uint256",
          "name": "falseVotes",
          "type": "uint256"
        },
        {
          "internalType": "uint256",
          "name": "requiredVotes",
          "type": "uint256"
        },
        {
          "internalType": "address[]",
          "name": "voters",
          "type": "address[]"
        }
      ],
      "stateMutability": "view",
      "type": "function"
    },
    {
      "inputs": [
        {
          "internalType": "bytes32",
          "name": "",
          "type": "bytes32"
        },
        {
          "internalType": "address",
          "name": "",
          "type": "address"
        }
      ],
      "name": "hasVerified",
      "outputs": [
        {
          "internalType": "bool",
          "name": "",
          "type": "bool"
        }
      ],
      "stateMutability": "view",
      "type": "function"
    },
    {
      "inputs": [
        {
          "internalType": "address",
          "name": "_addr",
          "type": "address"
        }
      ],
      "name": "isCurrentValidator",
      "outputs": [
        {
          "internalType": "bool",
          "name": "",
          "type": "bool"
        }
      ],
      "stateMutability": "view",
      "type": "function"
    },
    {
      "inputs": [
        {
          "internalType": "bytes32",
          "name": "_dataHash",
          "type": "bytes32"
        }
      ],
      "name": "isPendingData",
      "outputs": [
        {
          "internalType": "bool",
          "name": "",
          "type": "bool"
        }
      ],
      "stateMutability": "view",
      "type": "function"
    },
    {
      "inputs": [],
      "name": "lastElectionBlock",
      "outputs": [
        {
          "internalType": "uint256",
          "name": "",
          "type": "uint256"
        }
      ],
      "stateMutability": "view",
      "type": "function"
    },
    {
      "inputs": [],
      "name": "lastElectionTime",
      "outputs": [
        {
          "internalType": "uint256",
          "name": "",
          "type": "uint256"
        }
      ],
      "stateMutability": "view",
      "type": "function"
    },
    {
      "inputs": [],
      "name": "owner",
      "outputs": [
        {
          "internalType": "address",
          "name": "",
          "type": "address"
        }
      ],
      "stateMutability": "view",
      "type": "function"
    },
    {
      "inputs": [
        {
          "internalType": "uint256",
          "name": "",
          "type": "uint256"
        }
      ],
      "name": "registeredDelegates",
      "outputs": [
        {
          "internalType": "address",
          "name": "",
          "type": "address"
        }
      ],
      "stateMutability": "view",
      "type": "function"
    },
    {
      "inputs": [],
      "name": "renounceOwnership",
      "outputs": [],
      "stateMutability": "nonpayable",
      "type": "function"
    },
    {
      "inputs": [
        {
          "internalType": "address",
          "name": "",
          "type": "address"
        }
      ],
      "name": "reputation",
      "outputs": [
        {
          "internalType": "uint256",
          "name": "",
          "type": "uint256"
        }
      ],
      "stateMutability": "view",
      "type": "function"
    },
    {
      "inputs": [
        {
          "internalType": "address",
          "name": "_validator",
          "type": "address"
        },
        {
          "internalType": "uint256",
          "name": "_penalty",
          "type": "uint256"
        }
      ],
      "name": "slashValidator",
      "outputs": [],
      "stateMutability": "nonpayable",
      "type": "function"
    },
    {
      "inputs": [
        {
          "internalType": "address",
          "name": "_delegate",
          "type": "address"
        },
        {
          "internalType": "uint256",
          "name": "_amount",
          "type": "uint256"
        }
      ],
      "name": "stake",
      "outputs": [],
      "stateMutability": "nonpayable",
      "type": "function"
    },
    {
      "inputs": [
        {
          "internalType": "bytes32",
          "name": "_dataHash",
          "type": "bytes32"
        }
      ],
      "name": "submitData",
      "outputs": [],
      "stateMutability": "nonpayable",
      "type": "function"
    },
    {
      "inputs": [
        {
          "internalType": "address",
          "name": "newOwner",
          "type": "address"
        }
      ],
      "name": "transferOwnership",
      "outputs": [],
      "stateMutability": "nonpayable",
      "type": "function"
    },
    {
      "inputs": [],
      "name": "treasuryAddress",
      "outputs": [
        {
          "internalType": "address",
          "name": "",
          "type": "address"
        }
      ],
      "stateMutability": "view",
      "type": "function"
    },
    {
      "inputs": [
        {
          "internalType": "bytes32",
          "name": "",
          "type": "bytes32"
        }
      ],
      "name": "trueVoteCount",
      "outputs": [
        {
          "internalType": "uint256",
          "name": "",
          "type": "uint256"
        }
      ],
      "stateMutability": "view",
      "type": "function"
    },
    {
      "inputs": [
        {
          "internalType": "address",
          "name": "_delegate",
          "type": "address"
        },
        {
          "internalType": "uint256",
          "name": "_amount",
          "type": "uint256"
        }
      ],
      "name": "unstake",
      "outputs": [],
      "stateMutability": "nonpayable",
      "type": "function"
    },
    {
      "inputs": [
        {
          "internalType": "bytes32",
          "name": "",
          "type": "bytes32"
        },
        {
          "internalType": "address",
          "name": "",
          "type": "address"
        }
      ],
      "name": "validatorVoteValue",
      "outputs": [
        {
          "internalType": "bool",
          "name": "",
          "type": "bool"
        }
      ],
      "stateMutability": "view",
      "type": "function"
    },
    {
      "inputs": [
        {
          "internalType": "bytes32",
          "name": "",
          "type": "bytes32"
        },
        {
          "internalType": "uint256",
          "name": "",
          "type": "uint256"
        }
      ],
      "name": "validatorsWhoVerified",
      "outputs": [
        {
          "internalType": "address",
          "name": "",
          "type": "address"
        }
      ],
      "stateMutability": "view",
      "type": "function"
    },
    {
      "inputs": [
        {
          "internalType": "bytes32",
          "name": "",
          "type": "bytes32"
        }
      ],
      "name": "verificationCount",
      "outputs": [
        {
          "internalType": "uint256",
          "name": "",
          "type": "uint256"
        }
      ],
      "stateMutability": "view",
      "type": "function"
    },
    {
      "inputs": [
        {
          "internalType": "bytes32",
          "name": "_dataHash",
          "type": "bytes32"
        },
        {
          "internalType": "bool",
          "name": "_valid",
          "type": "bool"
        }
      ],
      "name": "verifyData",
      "outputs": [],
      "stateMutability": "nonpayable",
      "type": "function"
    }
  ],
  "bytecode": "0x60806040523480156200001157600080fd5b5060405162004cad38038062004cad833981810160405281019062000037919062000285565b33600073ffffffffffffffffffffffffffffffffffffffff168173ffffffffffffffffffffffffffffffffffffffff1603620000ad5760006040517f1e4fbdf7000000000000000000000000000000000000000000000000000000008152600401620000a49190620002dd565b60405180910390fd5b620000be816200015760201b60201c565b5081600160006101000a81548173ffffffffffffffffffffffffffffffffffffffff021916908373ffffffffffffffffffffffffffffffffffffffff16021790555080600760006101000a81548173ffffffffffffffffffffffffffffffffffffffff021916908373ffffffffffffffffffffffffffffffffffffffff16021790555042600581905550436006819055505050620002fa565b60008060009054906101000a900473ffffffffffffffffffffffffffffffffffffffff169050816000806101000a81548173ffffffffffffffffffffffffffffffffffffffff021916908373ffffffffffffffffffffffffffffffffffffffff1602179055508173ffffffffffffffffffffffffffffffffffffffff168173ffffffffffffffffffffffffffffffffffffffff167f8be0079c531659141344cd1fd0a4f28419497f9722a3daafe3b4186f6b6457e060405160405180910390a35050565b600080fd5b600073ffffffffffffffffffffffffffffffffffffffff82169050919050565b60006200024d8262000220565b9050919050565b6200025f8162000240565b81146200026b57600080fd5b50565b6000815190506200027f8162000254565b92915050565b600080604083850312156200029f576200029e6200021b565b5b6000620002af858286016200026e565b9250506020620002c2858286016200026e565b9150509250929050565b620002d78162000240565b82525050565b6000602082019050620002f46000830184620002cc565b92915050565b6149a3806200030a6000396000f3fe608060405234801561001057600080fd5b50600436106102535760003560e01c806394b3368411610146578063bb985d7d116100c3578063cd928de911610087578063cd928de914610731578063d1a89fde1461074f578063d9c91d031461076b578063ebd151f31461079b578063ec623c61146107b9578063f2fde38b146107e957610253565b8063bb985d7d1461069f578063c2a672e0146106bb578063c5f956af146106d7578063c5f9dff0146106f5578063cbafc40f1461071357610253565b8063ac4746ab1161010a578063ac4746ab146105fb578063adc9772e14610619578063b28b494614610635578063b3bdcb9814610653578063b9f794511461066f57610253565b806394b33684146105415780639687521e1461057157806396ee78941461058f5780639d0b5e58146105ad5780639fb519ea146105dd57610253565b806363b800f2116101d45780637cb44a08116101985780637cb44a08146104615780637e80b0951461049157806382c98de9146104c15780638da5cb5b146104f3578063900eb5a81461051157610253565b806363b800f2146103e15780636b5f420b146103ff5780636f4a2cd01461042f578063714897df14610439578063715018a61461045757610253565b806350944f4a1161021b57806350944f4a146102fc578063539964c61461032c57806355614fcc1461034a578063587cde1e1461037a5780636346000b146103ac57610253565b80630b64f1ff146102585780630eb1b586146102625780632f2b166f146102805780633e4208ef146102b05780635028e2e1146102cc575b600080fd5b610260610805565b005b61026a610dd2565b604051610277919061374d565b60405180910390f35b61029a600480360381019061029591906137a3565b610dd8565b6040516102a7919061374d565b60405180910390f35b6102ca60048036038101906102c5919061385a565b610df0565b005b6102e660048036038101906102e1919061389a565b6110c8565b6040516102f3919061374d565b60405180910390f35b610316600480360381019061031191906138da565b611152565b6040516103239190613935565b60405180910390f35b610334611181565b604051610341919061374d565b60405180910390f35b610364600480360381019061035f9190613950565b611186565b6040516103719190613935565b60405180910390f35b610394600480360381019061038f9190613950565b611234565b6040516103a39392919061397d565b60405180910390f35b6103c660048036038101906103c191906137a3565b61126b565b6040516103d896959493929190613a72565b60405180910390f35b6103e96113c3565b6040516103f69190613b39565b60405180910390f35b610419600480360381019061041491906137a3565b6113e9565b604051610426919061374d565b60405180910390f35b610437611401565b005b610441611975565b60405161044e919061374d565b60405180910390f35b61045f61197a565b005b61047b600480360381019061047691906137a3565b61198e565b604051610488919061374d565b60405180910390f35b6104ab60048036038101906104a69190613950565b6119a6565b6040516104b8919061374d565b60405180910390f35b6104db60048036038101906104d691906137a3565b6119f2565b6040516104ea93929190613b72565b60405180910390f35b6104fb611a49565b6040516105089190613ba9565b60405180910390f35b61052b60048036038101906105269190613bc4565b611a72565b6040516105389190613ba9565b60405180910390f35b61055b60048036038101906105569190613bf1565b611ab1565b6040516105689190613ba9565b60405180910390f35b610579611aff565b604051610586919061374d565b60405180910390f35b610597611b05565b6040516105a49190613c31565b60405180910390f35b6105c760048036038101906105c29190613bc4565b611b93565b6040516105d49190613ba9565b60405180910390f35b6105e5611bd2565b6040516105f29190613d11565b60405180910390f35b610603611c28565b604051610610919061374d565b60405180910390f35b610633600480360381019061062e919061385a565b611c2d565b005b61063d611feb565b60405161064a919061374d565b60405180910390f35b61066d60048036038101906106689190613d5f565b611ff2565b005b61068960048036038101906106849190613950565b612923565b604051610696919061374d565b60405180910390f35b6106b960048036038101906106b491906137a3565b61293b565b005b6106d560048036038101906106d0919061385a565b612a82565b005b6106df612f9e565b6040516106ec9190613ba9565b60405180910390f35b6106fd612fc4565b60405161070a9190613c31565b60405180910390f35b61071b613052565b604051610728919061374d565b60405180910390f35b610739613057565b604051610746919061374d565b60405180910390f35b61076960048036038101906107649190613950565b61305c565b005b610785600480360381019061078091906137a3565b6131df565b6040516107929190613935565b60405180910390f35b6107a3613280565b6040516107b0919061374d565b60405180910390f35b6107d360048036038101906107ce91906138da565b613285565b6040516107e09190613935565b60405180910390f35b61080360048036038101906107fe9190613950565b6132b4565b005b60006003805490501161084d576040517f08c379a000000000000000000000000000000000000000000000000000000000815260040161084490613dfc565b60405180910390fd5b60005b600480549050811015610909576000600260006004848154811061087757610876613e1c565b5b9060005260206000200160009054906101000a900473ffffffffffffffffffffffffffffffffffffffff1673ffffffffffffffffffffffffffffffffffffffff1673ffffffffffffffffffffffffffffffffffffffff16815260200190815260200160002060020160006101000a81548160ff021916908315150217905550808061090190613e7a565b915050610850565b50600067ffffffffffffffff81111561092557610924613ec2565b5b6040519080825280602002602001820160405280156109535781602001602082028036833780820191505090505b506004908051906020019061096992919061368d565b506000600380549050905060008167ffffffffffffffff8111156109905761098f613ec2565b5b6040519080825280602002602001820160405280156109be5781602001602082028036833780820191505090505b50905060005b82811015610a6b57600381815481106109e0576109df613e1c565b5b9060005260206000200160009054906101000a900473ffffffffffffffffffffffffffffffffffffffff16828281518110610a1e57610a1d613e1c565b5b602002602001019073ffffffffffffffffffffffffffffffffffffffff16908173ffffffffffffffffffffffffffffffffffffffff16815250508080610a6390613e7a565b9150506109c4565b5060005b82811015610c605760008190506000600183610a8b9190613ef1565b90505b84811015610b6d5760026000858481518110610aad57610aac613e1c565b5b602002602001015173ffffffffffffffffffffffffffffffffffffffff1673ffffffffffffffffffffffffffffffffffffffff1681526020019081526020016000206000015460026000868481518110610b0a57610b09613e1c565b5b602002602001015173ffffffffffffffffffffffffffffffffffffffff1673ffffffffffffffffffffffffffffffffffffffff168152602001908152602001600020600001541115610b5a578091505b8080610b6590613e7a565b915050610a8e565b50818114610c4c576000838381518110610b8a57610b89613e1c565b5b60200260200101519050838281518110610ba757610ba6613e1c565b5b6020026020010151848481518110610bc257610bc1613e1c565b5b602002602001019073ffffffffffffffffffffffffffffffffffffffff16908173ffffffffffffffffffffffffffffffffffffffff168152505080848381518110610c1057610c0f613e1c565b5b602002602001019073ffffffffffffffffffffffffffffffffffffffff16908173ffffffffffffffffffffffffffffffffffffffff1681525050505b508080610c5890613e7a565b915050610a6f565b50600060158310610c72576015610c74565b825b905060005b81811015610d86576004838281518110610c9657610c95613e1c565b5b60200260200101519080600181540180825580915050600190039060005260206000200160009091909190916101000a81548173ffffffffffffffffffffffffffffffffffffffff021916908373ffffffffffffffffffffffffffffffffffffffff160217905550600160026000858481518110610d1757610d16613e1c565b5b602002602001015173ffffffffffffffffffffffffffffffffffffffff1673ffffffffffffffffffffffffffffffffffffffff16815260200190815260200160002060020160006101000a81548160ff0219169083151502179055508080610d7e90613e7a565b915050610c79565b5042600581905550436006819055507f9f22bcf9ed8374df04282369326796a9739365b05bded9ea71a762beece470ff6004604051610dc59190614011565b60405180910390a1505050565b60055481565b600e6020528060005260406000206000915090505481565b610df861333a565b80600260008473ffffffffffffffffffffffffffffffffffffffff1673ffffffffffffffffffffffffffffffffffffffff168152602001908152602001600020600001541015610e7d576040517f08c379a0000000000000000000000000000000000000000000000000000000008152600401610e749061407f565b60405180910390fd5b80600260008473ffffffffffffffffffffffffffffffffffffffff1673ffffffffffffffffffffffffffffffffffffffff1681526020019081526020016000206000016000828254610ecf919061409f565b92505081905550600160009054906101000a900473ffffffffffffffffffffffffffffffffffffffff1673ffffffffffffffffffffffffffffffffffffffff1663a9059cbb600760009054906101000a900473ffffffffffffffffffffffffffffffffffffffff16836040518363ffffffff1660e01b8152600401610f559291906140d3565b6020604051808303816000875af1158015610f74573d6000803e3d6000fd5b505050506040513d601f19601f82011682018060405250810190610f989190614111565b610fd7576040517f08c379a0000000000000000000000000000000000000000000000000000000008152600401610fce9061418a565b60405180910390fd5b6032600960008473ffffffffffffffffffffffffffffffffffffffff1673ffffffffffffffffffffffffffffffffffffffff1681526020019081526020016000205410611076576032600960008473ffffffffffffffffffffffffffffffffffffffff1673ffffffffffffffffffffffffffffffffffffffff168152602001908152602001600020600082825461106e919061409f565b925050819055505b8173ffffffffffffffffffffffffffffffffffffffff167f17bddadfd7ec8898c3b9eadd0cf5ae77ba8d5df3a50e96ab86ec2dd711aa8fbb826040516110bc919061374d565b60405180910390a25050565b6000600260008473ffffffffffffffffffffffffffffffffffffffff1673ffffffffffffffffffffffffffffffffffffffff16815260200190815260200160002060010160008373ffffffffffffffffffffffffffffffffffffffff1673ffffffffffffffffffffffffffffffffffffffff16815260200190815260200160002054905092915050565b600a6020528160005260406000206020528060005260406000206000915091509054906101000a900460ff1681565b601481565b600080600090505b600480549050811015611229578273ffffffffffffffffffffffffffffffffffffffff16600482815481106111c6576111c5613e1c565b5b9060005260206000200160009054906101000a900473ffffffffffffffffffffffffffffffffffffffff1673ffffffffffffffffffffffffffffffffffffffff160361121657600191505061122f565b808061122190613e7a565b91505061118e565b50600090505b919050565b60026020528060005260406000206000915090508060000154908060020160009054906101000a900460ff16908060030154905083565b600080600080600060606008600088815260200190815260200160002060020160009054906101000a900460ff169550600c6000888152602001908152602001600020549450600d6000888152602001908152602001600020549350600e600088815260200190815260200160002054925060006004805490509050600081116112f6576001611310565b606460338261130591906141aa565b61130f919061421b565b5b92506000830361131f57600192505b600f60008981526020019081526020016000208054806020026020016040519081016040528092919081815260200182805480156113b257602002820191906000526020600020905b8160009054906101000a900473ffffffffffffffffffffffffffffffffffffffff1673ffffffffffffffffffffffffffffffffffffffff1681526020019060010190808311611368575b505050505091505091939550919395565b600160009054906101000a900473ffffffffffffffffffffffffffffffffffffffff1681565b600d6020528060005260406000206000915090505481565b6000600a600160009054906101000a900473ffffffffffffffffffffffffffffffffffffffff1673ffffffffffffffffffffffffffffffffffffffff166370a08231306040518263ffffffff1660e01b81526004016114609190613ba9565b602060405180830381865afa15801561147d573d6000803e3d6000fd5b505050506040513d601f19601f820116820180604052508101906114a19190614261565b6114ab919061421b565b9050600081116114f0576040517f08c379a00000000000000000000000000000000000000000000000000000000081526004016114e7906142da565b60405180910390fd5b6000606460468361150191906141aa565b61150b919061421b565b90506000606460148461151e91906141aa565b611528919061421b565b905060006064600a8561153b91906141aa565b611545919061421b565b9050600160009054906101000a900473ffffffffffffffffffffffffffffffffffffffff1673ffffffffffffffffffffffffffffffffffffffff1663a9059cbb600760009054906101000a900473ffffffffffffffffffffffffffffffffffffffff16836040518363ffffffff1660e01b81526004016115c69291906140d3565b6020604051808303816000875af11580156115e5573d6000803e3d6000fd5b505050506040513d601f19601f820116820180604052508101906116099190614111565b611648576040517f08c379a000000000000000000000000000000000000000000000000000000000815260040161163f90614346565b60405180910390fd5b6000805b6004805490508110156116fa57600260006004838154811061167157611670613e1c565b5b9060005260206000200160009054906101000a900473ffffffffffffffffffffffffffffffffffffffff1673ffffffffffffffffffffffffffffffffffffffff1673ffffffffffffffffffffffffffffffffffffffff16815260200190815260200160002060000154826116e59190613ef1565b915080806116f290613e7a565b91505061164c565b5060005b6004805490508110156119305760006004828154811061172157611720613e1c565b5b9060005260206000200160009054906101000a900473ffffffffffffffffffffffffffffffffffffffff1690506000600260008373ffffffffffffffffffffffffffffffffffffffff1673ffffffffffffffffffffffffffffffffffffffff16815260200190815260200160002060000154905060008482896117a491906141aa565b6117ae919061421b565b905060008583896117bf91906141aa565b6117c9919061421b565b9050600160009054906101000a900473ffffffffffffffffffffffffffffffffffffffff1673ffffffffffffffffffffffffffffffffffffffff1663a9059cbb8583856118169190613ef1565b6040518363ffffffff1660e01b81526004016118339291906140d3565b6020604051808303816000875af1158015611852573d6000803e3d6000fd5b505050506040513d601f19601f820116820180604052508101906118769190614111565b6118b5576040517f08c379a00000000000000000000000000000000000000000000000000000000081526004016118ac906143b2565b60405180910390fd5b80826118c19190613ef1565b600260008673ffffffffffffffffffffffffffffffffffffffff1673ffffffffffffffffffffffffffffffffffffffff16815260200190815260200160002060030160008282546119129190613ef1565b9250508190555050505050808061192890613e7a565b9150506116fe565b507ff05b0b8458b89503ca56b18429a7b1ecd2f7f2d6d5eba936da3791b6b078bc788585858560405161196694939291906143d2565b60405180910390a15050505050565b601581565b61198261333a565b61198c60006133c1565b565b600c6020528060005260406000206000915090505481565b6000600260008373ffffffffffffffffffffffffffffffffffffffff1673ffffffffffffffffffffffffffffffffffffffff168152602001908152602001600020600001549050919050565b60086020528060005260406000206000915090508060000160009054906101000a900473ffffffffffffffffffffffffffffffffffffffff16908060010154908060020160009054906101000a900460ff16905083565b60008060009054906101000a900473ffffffffffffffffffffffffffffffffffffffff16905090565b60048181548110611a8257600080fd5b906000526020600020016000915054906101000a900473ffffffffffffffffffffffffffffffffffffffff1681565b600f6020528160005260406000208181548110611acd57600080fd5b906000526020600020016000915091509054906101000a900473ffffffffffffffffffffffffffffffffffffffff1681565b60065481565b60606003805480602002602001604051908101604052809291908181526020018280548015611b8957602002820191906000526020600020905b8160009054906101000a900473ffffffffffffffffffffffffffffffffffffffff1673ffffffffffffffffffffffffffffffffffffffff1681526020019060010190808311611b3f575b5050505050905090565b60038181548110611ba357600080fd5b906000526020600020016000915054906101000a900473ffffffffffffffffffffffffffffffffffffffff1681565b606060008067ffffffffffffffff811115611bf057611bef613ec2565b5b604051908082528060200260200182016040528015611c1e5781602001602082028036833780820191505090505b5090508091505090565b606481565b60008111611c70576040517f08c379a0000000000000000000000000000000000000000000000000000000008152600401611c6790614489565b60405180910390fd5b600160009054906101000a900473ffffffffffffffffffffffffffffffffffffffff1673ffffffffffffffffffffffffffffffffffffffff166323b872dd3330846040518463ffffffff1660e01b8152600401611ccf939291906144a9565b6020604051808303816000875af1158015611cee573d6000803e3d6000fd5b505050506040513d601f19601f82011682018060405250810190611d129190614111565b611d51576040517f08c379a0000000000000000000000000000000000000000000000000000000008152600401611d489061452c565b60405180910390fd5b6000600260008473ffffffffffffffffffffffffffffffffffffffff1673ffffffffffffffffffffffffffffffffffffffff16815260200190815260200160002060000154148015611e2257506000600260008473ffffffffffffffffffffffffffffffffffffffff1673ffffffffffffffffffffffffffffffffffffffff16815260200190815260200160002060010160003373ffffffffffffffffffffffffffffffffffffffff1673ffffffffffffffffffffffffffffffffffffffff16815260200190815260200160002054145b15611e8b576003829080600181540180825580915050600190039060005260206000200160009091909190916101000a81548173ffffffffffffffffffffffffffffffffffffffff021916908373ffffffffffffffffffffffffffffffffffffffff1602179055505b80600260008473ffffffffffffffffffffffffffffffffffffffff1673ffffffffffffffffffffffffffffffffffffffff1681526020019081526020016000206000016000828254611edd9190613ef1565b9250508190555080600260008473ffffffffffffffffffffffffffffffffffffffff1673ffffffffffffffffffffffffffffffffffffffff16815260200190815260200160002060010160003373ffffffffffffffffffffffffffffffffffffffff1673ffffffffffffffffffffffffffffffffffffffff1681526020019081526020016000206000828254611f739190613ef1565b925050819055508173ffffffffffffffffffffffffffffffffffffffff163373ffffffffffffffffffffffffffffffffffffffff167f5dac0c1b1112564a045ba943c9d50270893e8e826c49be8e7073adc713ab7bd783604051611fd7919061374d565b60405180910390a3611fe7613485565b5050565b62093a8081565b600260003373ffffffffffffffffffffffffffffffffffffffff1673ffffffffffffffffffffffffffffffffffffffff16815260200190815260200160002060020160009054906101000a900460ff16612081576040517f08c379a000000000000000000000000000000000000000000000000000000000815260040161207890614598565b60405180910390fd5b600073ffffffffffffffffffffffffffffffffffffffff166008600084815260200190815260200160002060000160009054906101000a900473ffffffffffffffffffffffffffffffffffffffff1673ffffffffffffffffffffffffffffffffffffffff1603612126576040517f08c379a000000000000000000000000000000000000000000000000000000000815260040161211d90614604565b60405180910390fd5b6008600083815260200190815260200160002060020160009054906101000a900460ff161561218a576040517f08c379a000000000000000000000000000000000000000000000000000000000815260040161218190614670565b60405180910390fd5b600a600083815260200190815260200160002060003373ffffffffffffffffffffffffffffffffffffffff1673ffffffffffffffffffffffffffffffffffffffff16815260200190815260200160002060009054906101000a900460ff1615612228576040517f08c379a000000000000000000000000000000000000000000000000000000000815260040161221f906146dc565b60405180910390fd5b6001600a600084815260200190815260200160002060003373ffffffffffffffffffffffffffffffffffffffff1673ffffffffffffffffffffffffffffffffffffffff16815260200190815260200160002060006101000a81548160ff02191690831515021790555080600b600084815260200190815260200160002060003373ffffffffffffffffffffffffffffffffffffffff1673ffffffffffffffffffffffffffffffffffffffff16815260200190815260200160002060006101000a81548160ff021916908315150217905550600c6000838152602001908152602001600020600081548092919061231d90613e7a565b9190505550600f6000838152602001908152602001600020339080600181540180825580915050600190039060005260206000200160009091909190916101000a81548173ffffffffffffffffffffffffffffffffffffffff021916908373ffffffffffffffffffffffffffffffffffffffff16021790555080156123ca57600d600083815260200190815260200160002060008154809291906123c090613e7a565b91905055506123f4565b600e600083815260200190815260200160002060008154809291906123ee90613e7a565b91905055505b6000600480549050905060008111612441576040517f08c379a000000000000000000000000000000000000000000000000000000000815260040161243890614748565b60405180910390fd5b6000606460338361245291906141aa565b61245c919061421b565b90506000810361246b57600190505b600081600d60008781526020019081526020016000205410159050600082600e60008881526020019081526020016000205410159050600082806124ac5750815b9050600083905081156128e0576001600860008a815260200190815260200160002060020160006101000a81548160ff0219169083151502179055506000600f60008a815260200190815260200160002080548060200260200160405190810160405280929190818152602001828054801561257d57602002820191906000526020600020905b8160009054906101000a900473ffffffffffffffffffffffffffffffffffffffff1673ffffffffffffffffffffffffffffffffffffffff1681526020019060010190808311612533575b5050505050905060005b81518110156128a15760008282815181106125a5576125a4613e1c565b5b602002602001015190506000600b60008d815260200190815260200160002060008373ffffffffffffffffffffffffffffffffffffffff1673ffffffffffffffffffffffffffffffffffffffff16815260200190815260200160002060009054906101000a900460ff1690508415158115150361262c576126278260016134a5565b61288c565b6126378260006134a5565b6000600a600260008573ffffffffffffffffffffffffffffffffffffffff1673ffffffffffffffffffffffffffffffffffffffff16815260200190815260200160002060000154612688919061421b565b90506000811180156126dc575080600260008573ffffffffffffffffffffffffffffffffffffffff1673ffffffffffffffffffffffffffffffffffffffff1681526020019081526020016000206000015410155b1561288a5780600260008573ffffffffffffffffffffffffffffffffffffffff1673ffffffffffffffffffffffffffffffffffffffff1681526020019081526020016000206000016000828254612733919061409f565b92505081905550600160009054906101000a900473ffffffffffffffffffffffffffffffffffffffff1673ffffffffffffffffffffffffffffffffffffffff1663a9059cbb600760009054906101000a900473ffffffffffffffffffffffffffffffffffffffff16836040518363ffffffff1660e01b81526004016127b99291906140d3565b6020604051808303816000875af11580156127d8573d6000803e3d6000fd5b505050506040513d601f19601f820116820180604052508101906127fc9190614111565b61283b576040517f08c379a00000000000000000000000000000000000000000000000000000000081526004016128329061418a565b60405180910390fd5b8273ffffffffffffffffffffffffffffffffffffffff167f17bddadfd7ec8898c3b9eadd0cf5ae77ba8d5df3a50e96ab86ec2dd711aa8fbb82604051612881919061374d565b60405180910390a25b505b5050808061289990613e7a565b915050612587565b50887fee7761497838e6fe8aa3859ef53f7e3842149851e8064fc426810583049304a2836040516128d29190613935565b60405180910390a250612919565b877fee7761497838e6fe8aa3859ef53f7e3842149851e8064fc426810583049304a2886040516129109190613935565b60405180910390a25b5050505050505050565b60096020528060005260406000206000915090505481565b6000801b8103612980576040517f08c379a0000000000000000000000000000000000000000000000000000000008152600401612977906147b4565b60405180910390fd5b60405180606001604052803373ffffffffffffffffffffffffffffffffffffffff168152602001828152602001600015158152506008600083815260200190815260200160002060008201518160000160006101000a81548173ffffffffffffffffffffffffffffffffffffffff021916908373ffffffffffffffffffffffffffffffffffffffff1602179055506020820151816001015560408201518160020160006101000a81548160ff021916908315150217905550905050803373ffffffffffffffffffffffffffffffffffffffff167f138e8be20fb477316c82e05a0e2a8048c6e71923256d9e2393c5e8c3d8d8eacd60405160405180910390a350565b60008111612ac5576040517f08c379a0000000000000000000000000000000000000000000000000000000008152600401612abc90614846565b60405180910390fd5b80600260008473ffffffffffffffffffffffffffffffffffffffff1673ffffffffffffffffffffffffffffffffffffffff16815260200190815260200160002060010160003373ffffffffffffffffffffffffffffffffffffffff1673ffffffffffffffffffffffffffffffffffffffff168152602001908152602001600020541015612b87576040517f08c379a0000000000000000000000000000000000000000000000000000000008152600401612b7e906148b2565b60405180910390fd5b80600260008473ffffffffffffffffffffffffffffffffffffffff1673ffffffffffffffffffffffffffffffffffffffff1681526020019081526020016000206000016000828254612bd9919061409f565b9250508190555080600260008473ffffffffffffffffffffffffffffffffffffffff1673ffffffffffffffffffffffffffffffffffffffff16815260200190815260200160002060010160003373ffffffffffffffffffffffffffffffffffffffff1673ffffffffffffffffffffffffffffffffffffffff1681526020019081526020016000206000828254612c6f919061409f565b92505081905550600160009054906101000a900473ffffffffffffffffffffffffffffffffffffffff1673ffffffffffffffffffffffffffffffffffffffff1663a9059cbb33836040518363ffffffff1660e01b8152600401612cd39291906140d3565b6020604051808303816000875af1158015612cf2573d6000803e3d6000fd5b505050506040513d601f19601f82011682018060405250810190612d169190614111565b612d55576040517f08c379a0000000000000000000000000000000000000000000000000000000008152600401612d4c9061452c565b60405180910390fd5b8173ffffffffffffffffffffffffffffffffffffffff163373ffffffffffffffffffffffffffffffffffffffff167fd8654fcc8cf5b36d30b3f5e4688fc78118e6d68de60b9994e09902268b57c3e383604051612db2919061374d565b60405180910390a36000600260008473ffffffffffffffffffffffffffffffffffffffff1673ffffffffffffffffffffffffffffffffffffffff1681526020019081526020016000206000015403612f925760005b600380549050811015612f90578273ffffffffffffffffffffffffffffffffffffffff1660038281548110612e3f57612e3e613e1c565b5b9060005260206000200160009054906101000a900473ffffffffffffffffffffffffffffffffffffffff1673ffffffffffffffffffffffffffffffffffffffff1603612f7d5760036001600380549050612e99919061409f565b81548110612eaa57612ea9613e1c565b5b9060005260206000200160009054906101000a900473ffffffffffffffffffffffffffffffffffffffff1660038281548110612ee957612ee8613e1c565b5b9060005260206000200160006101000a81548173ffffffffffffffffffffffffffffffffffffffff021916908373ffffffffffffffffffffffffffffffffffffffff1602179055506003805480612f4357612f426148d2565b5b6001900381819060005260206000200160006101000a81549073ffffffffffffffffffffffffffffffffffffffff02191690559055612f90565b8080612f8890613e7a565b915050612e07565b505b612f9a613485565b5050565b600760009054906101000a900473ffffffffffffffffffffffffffffffffffffffff1681565b6060600480548060200260200160405190810160405280929190818152602001828054801561304857602002820191906000526020600020905b8160009054906101000a900473ffffffffffffffffffffffffffffffffffffffff1673ffffffffffffffffffffffffffffffffffffffff1681526020019060010190808311612ffe575b5050505050905090565b600a81565b604681565b61306461333a565b600073ffffffffffffffffffffffffffffffffffffffff168173ffffffffffffffffffffffffffffffffffffffff16036130d3576040517f08c379a00000000000000000000000000000000000000000000000000000000081526004016130ca9061494d565b60405180910390fd5b6000600260008373ffffffffffffffffffffffffffffffffffffffff1673ffffffffffffffffffffffffffffffffffffffff1681526020019081526020016000206000015403613181576003819080600181540180825580915050600190039060005260206000200160009091909190916101000a81548173ffffffffffffffffffffffffffffffffffffffff021916908373ffffffffffffffffffffffffffffffffffffffff1602179055505b6001600260008373ffffffffffffffffffffffffffffffffffffffff1673ffffffffffffffffffffffffffffffffffffffff16815260200190815260200160002060020160006101000a81548160ff02191690831515021790555050565b60008073ffffffffffffffffffffffffffffffffffffffff166008600084815260200190815260200160002060000160009054906101000a900473ffffffffffffffffffffffffffffffffffffffff1673ffffffffffffffffffffffffffffffffffffffff1603613253576000905061327b565b6008600083815260200190815260200160002060020160009054906101000a900460ff161590505b919050565b603381565b600b6020528160005260406000206020528060005260406000206000915091509054906101000a900460ff1681565b6132bc61333a565b600073ffffffffffffffffffffffffffffffffffffffff168173ffffffffffffffffffffffffffffffffffffffff160361332e5760006040517f1e4fbdf70000000000000000000000000000000000000000000000000000000081526004016133259190613ba9565b60405180910390fd5b613337816133c1565b50565b613342613685565b73ffffffffffffffffffffffffffffffffffffffff16613360611a49565b73ffffffffffffffffffffffffffffffffffffffff16146133bf57613383613685565b6040517f118cdaa70000000000000000000000000000000000000000000000000000000081526004016133b69190613ba9565b60405180910390fd5b565b60008060009054906101000a900473ffffffffffffffffffffffffffffffffffffffff169050816000806101000a81548173ffffffffffffffffffffffffffffffffffffffff021916908373ffffffffffffffffffffffffffffffffffffffff1602179055508173ffffffffffffffffffffffffffffffffffffffff168173ffffffffffffffffffffffffffffffffffffffff167f8be0079c531659141344cd1fd0a4f28419497f9722a3daafe3b4186f6b6457e060405160405180910390a35050565b60646006546134949190613ef1565b43106134a3576134a2610805565b5b565b801561359757600a600960008473ffffffffffffffffffffffffffffffffffffffff1673ffffffffffffffffffffffffffffffffffffffff16815260200190815260200160002060008282546134fb9190613ef1565b925050819055506103e8600960008473ffffffffffffffffffffffffffffffffffffffff1673ffffffffffffffffffffffffffffffffffffffff168152602001908152602001600020541115613592576103e8600960008473ffffffffffffffffffffffffffffffffffffffff1673ffffffffffffffffffffffffffffffffffffffff168152602001908152602001600020819055505b613681565b6014600960008473ffffffffffffffffffffffffffffffffffffffff1673ffffffffffffffffffffffffffffffffffffffff168152602001908152602001600020541061363a576014600960008473ffffffffffffffffffffffffffffffffffffffff1673ffffffffffffffffffffffffffffffffffffffff168152602001908152602001600020600082825461362e919061409f565b92505081905550613680565b6000600960008473ffffffffffffffffffffffffffffffffffffffff1673ffffffffffffffffffffffffffffffffffffffff168152602001908152602001600020819055505b5b5050565b600033905090565b828054828255906000526020600020908101928215613706579160200282015b828111156137055782518260006101000a81548173ffffffffffffffffffffffffffffffffffffffff021916908373ffffffffffffffffffffffffffffffffffffffff160217905550916020019190600101906136ad565b5b5090506137139190613717565b5090565b5b80821115613730576000816000905550600101613718565b5090565b6000819050919050565b61374781613734565b82525050565b6000602082019050613762600083018461373e565b92915050565b600080fd5b6000819050919050565b6137808161376d565b811461378b57600080fd5b50565b60008135905061379d81613777565b92915050565b6000602082840312156137b9576137b8613768565b5b60006137c78482850161378e565b91505092915050565b600073ffffffffffffffffffffffffffffffffffffffff82169050919050565b60006137fb826137d0565b9050919050565b61380b816137f0565b811461381657600080fd5b50565b60008135905061382881613802565b92915050565b61383781613734565b811461384257600080fd5b50565b6000813590506138548161382e565b92915050565b6000806040838503121561387157613870613768565b5b600061387f85828601613819565b925050602061389085828601613845565b9150509250929050565b600080604083850312156138b1576138b0613768565b5b60006138bf85828601613819565b92505060206138d085828601613819565b9150509250929050565b600080604083850312156138f1576138f0613768565b5b60006138ff8582860161378e565b925050602061391085828601613819565b9150509250929050565b60008115159050919050565b61392f8161391a565b82525050565b600060208201905061394a6000830184613926565b92915050565b60006020828403121561396657613965613768565b5b600061397484828501613819565b91505092915050565b6000606082019050613992600083018661373e565b61399f6020830185613926565b6139ac604083018461373e565b949350505050565b600081519050919050565b600082825260208201905092915050565b6000819050602082019050919050565b6139e9816137f0565b82525050565b60006139fb83836139e0565b60208301905092915050565b6000602082019050919050565b6000613a1f826139b4565b613a2981856139bf565b9350613a34836139d0565b8060005b83811015613a65578151613a4c88826139ef565b9750613a5783613a07565b925050600181019050613a38565b5085935050505092915050565b600060c082019050613a876000830189613926565b613a94602083018861373e565b613aa1604083018761373e565b613aae606083018661373e565b613abb608083018561373e565b81810360a0830152613acd8184613a14565b9050979650505050505050565b6000819050919050565b6000613aff613afa613af5846137d0565b613ada565b6137d0565b9050919050565b6000613b1182613ae4565b9050919050565b6000613b2382613b06565b9050919050565b613b3381613b18565b82525050565b6000602082019050613b4e6000830184613b2a565b92915050565b613b5d816137f0565b82525050565b613b6c8161376d565b82525050565b6000606082019050613b876000830186613b54565b613b946020830185613b63565b613ba16040830184613926565b949350505050565b6000602082019050613bbe6000830184613b54565b92915050565b600060208284031215613bda57613bd9613768565b5b6000613be884828501613845565b91505092915050565b60008060408385031215613c0857613c07613768565b5b6000613c168582860161378e565b9250506020613c2785828601613845565b9150509250929050565b60006020820190508181036000830152613c4b8184613a14565b905092915050565b600081519050919050565b600082825260208201905092915050565b6000819050602082019050919050565b613c888161376d565b82525050565b6000613c9a8383613c7f565b60208301905092915050565b6000602082019050919050565b6000613cbe82613c53565b613cc88185613c5e565b9350613cd383613c6f565b8060005b83811015613d04578151613ceb8882613c8e565b9750613cf683613ca6565b925050600181019050613cd7565b5085935050505092915050565b60006020820190508181036000830152613d2b8184613cb3565b905092915050565b613d3c8161391a565b8114613d4757600080fd5b50565b600081359050613d5981613d33565b92915050565b60008060408385031215613d7657613d75613768565b5b6000613d848582860161378e565b9250506020613d9585828601613d4a565b9150509250929050565b600082825260208201905092915050565b7f4e6f2064656c6567617465732072656769737465726564000000000000000000600082015250565b6000613de6601783613d9f565b9150613df182613db0565b602082019050919050565b60006020820190508181036000830152613e1581613dd9565b9050919050565b7f4e487b7100000000000000000000000000000000000000000000000000000000600052603260045260246000fd5b7f4e487b7100000000000000000000000000000000000000000000000000000000600052601160045260246000fd5b6000613e8582613734565b91507fffffffffffffffffffffffffffffffffffffffffffffffffffffffffffffffff8203613eb757613eb6613e4b565b5b600182019050919050565b7f4e487b7100000000000000000000000000000000000000000000000000000000600052604160045260246000fd5b6000613efc82613734565b9150613f0783613734565b9250828201905080821115613f1f57613f1e613e4b565b5b92915050565b600081549050919050565b60008190508160005260206000209050919050565b60008160001c9050919050565b600073ffffffffffffffffffffffffffffffffffffffff82169050919050565b6000613f85613f8083613f45565b613f52565b9050919050565b6000613f988254613f72565b9050919050565b6000600182019050919050565b6000613fb782613f25565b613fc181856139bf565b9350613fcc83613f30565b8060005b8381101561400457613fe182613f8c565b613feb88826139ef565b9750613ff683613f9f565b925050600181019050613fd0565b5085935050505092915050565b6000602082019050818103600083015261402b8184613fac565b905092915050565b7f496e73756666696369656e74207374616b6520746f20736c6173680000000000600082015250565b6000614069601b83613d9f565b915061407482614033565b602082019050919050565b600060208201905081810360008301526140988161405c565b9050919050565b60006140aa82613734565b91506140b583613734565b92508282039050818111156140cd576140cc613e4b565b5b92915050565b60006040820190506140e86000830185613b54565b6140f5602083018461373e565b9392505050565b60008151905061410b81613d33565b92915050565b60006020828403121561412757614126613768565b5b6000614135848285016140fc565b91505092915050565b7f536c617368207472616e73666572206661696c65640000000000000000000000600082015250565b6000614174601583613d9f565b915061417f8261413e565b602082019050919050565b600060208201905081810360008301526141a381614167565b9050919050565b60006141b582613734565b91506141c083613734565b92508282026141ce81613734565b915082820484148315176141e5576141e4613e4b565b5b5092915050565b7f4e487b7100000000000000000000000000000000000000000000000000000000600052601260045260246000fd5b600061422682613734565b915061423183613734565b925082614241576142406141ec565b5b828204905092915050565b60008151905061425b8161382e565b92915050565b60006020828403121561427757614276613768565b5b60006142858482850161424c565b91505092915050565b7f4e6f207265776172647320746f20646973747269627574650000000000000000600082015250565b60006142c4601883613d9f565b91506142cf8261428e565b602082019050919050565b600060208201905081810360008301526142f3816142b7565b9050919050565b7f5472656173757279207472616e73666572206661696c65640000000000000000600082015250565b6000614330601883613d9f565b915061433b826142fa565b602082019050919050565b6000602082019050818103600083015261435f81614323565b9050919050565b7f526577617264207472616e73666572206661696c656400000000000000000000600082015250565b600061439c601683613d9f565b91506143a782614366565b602082019050919050565b600060208201905081810360008301526143cb8161438f565b9050919050565b60006080820190506143e7600083018761373e565b6143f4602083018661373e565b614401604083018561373e565b61440e606083018461373e565b95945050505050565b7f5374616b6520616d6f756e74206d75737420626520677265617465722074686160008201527f6e207a65726f0000000000000000000000000000000000000000000000000000602082015250565b6000614473602683613d9f565b915061447e82614417565b604082019050919050565b600060208201905081810360008301526144a281614466565b9050919050565b60006060820190506144be6000830186613b54565b6144cb6020830185613b54565b6144d8604083018461373e565b949350505050565b7f546f6b656e207472616e73666572206661696c65640000000000000000000000600082015250565b6000614516601583613d9f565b9150614521826144e0565b602082019050919050565b6000602082019050818103600083015261454581614509565b9050919050565b7f4f6e6c792076616c696461746f722063616e2076657269667900000000000000600082015250565b6000614582601983613d9f565b915061458d8261454c565b602082019050919050565b600060208201905081810360008301526145b181614575565b9050919050565b7f44617461206e6f7420666f756e64000000000000000000000000000000000000600082015250565b60006145ee600e83613d9f565b91506145f9826145b8565b602082019050919050565b6000602082019050818103600083015261461d816145e1565b9050919050565b7f416c726561647920766572696669656400000000000000000000000000000000600082015250565b600061465a601083613d9f565b915061466582614624565b602082019050919050565b600060208201905081810360008301526146898161464d565b9050919050565b7f596f7520616c7265616479207665726966696564207468697320646174610000600082015250565b60006146c6601e83613d9f565b91506146d182614690565b602082019050919050565b600060208201905081810360008301526146f5816146b9565b9050919050565b7f4e6f2076616c696461746f727320656c65637465640000000000000000000000600082015250565b6000614732601583613d9f565b915061473d826146fc565b602082019050919050565b6000602082019050818103600083015261476181614725565b9050919050565b7f496e76616c696420646174612068617368000000000000000000000000000000600082015250565b600061479e601183613d9f565b91506147a982614768565b602082019050919050565b600060208201905081810360008301526147cd81614791565b9050919050565b7f556e7374616b6520616d6f756e74206d7573742062652067726561746572207460008201527f68616e207a65726f000000000000000000000000000000000000000000000000602082015250565b6000614830602883613d9f565b915061483b826147d4565b604082019050919050565b6000602082019050818103600083015261485f81614823565b9050919050565b7f496e73756666696369656e74207374616b656420616d6f756e74000000000000600082015250565b600061489c601a83613d9f565b91506148a782614866565b602082019050919050565b600060208201905081810360008301526148cb8161488f565b9050919050565b7f4e487b7100000000000000000000000000000000000000000000000000000000600052603160045260246000fd5b7f496e76616c696420616464726573730000000000000000000000000000000000600082015250565b6000614937600f83613d9f565b915061494282614901565b602082019050919050565b600060208201905081810360008301526149668161492a565b905091905056fea264697066735822122047168eafbfa171b95bffa87e18dfbbadf403d49f0da7457545b58420082c409464736f6c63430008140033",
  "linkReferences": {},
  "deployedLinkReferences": {}
}