{
  "_format": "hh-sol-artifact-1",
  "contractName": "AutonomixDataShare",
  "sourceName": "contracts/AutonomixDataShare.sol",
  "abi": [
    {
      "anonymous": false,
      "inputs": [
        {
          "indexed": false,
          "internalType": "string",
          "name": "vehicleId",
          "type": "string"
        },
        {
          "indexed": false,
          "internalType": "string",
          "name": "eventType",
          "type": "string"
        },
        {
          "indexed": false,
          "internalType": "string",
          "name": "ipfsHash",
          "type": "string"
        },
        {
          "indexed": false,
          "internalType": "uint256",
          "name": "timestamp",
          "type": "uint256"
        }
      ],
      "name": "EventLogged",
      "type": "event"
    },
    {
      "inputs": [
        {
          "internalType": "uint256",
          "name": "",
          "type": "uint256"
        }
      ],
      "name": "events",
      "outputs": [
        {
          "internalType": "string",
          "name": "vehicleId",
          "type": "string"
        },
        {
          "internalType": "string",
          "name": "eventType",
          "type": "string"
        },
        {
          "internalType": "string",
          "name": "ipfsHash",
          "type": "string"
        },
        {
          "internalType": "uint256",
          "name": "timestamp",
          "type": "uint256"
        }
      ],
      "stateMutability": "view",
      "type": "function"
    },
    {
      "inputs": [
        {
          "internalType": "uint256",
          "name": "index",
          "type": "uint256"
        }
      ],
      "name": "getEvent",
      "outputs": [
        {
          "components": [
            {
              "internalType": "string",
              "name": "vehicleId",
              "type": "string"
            },
            {
              "internalType": "string",
              "name": "eventType",
              "type": "string"
            },
            {
              "internalType": "string",
              "name": "ipfsHash",
              "type": "string"
            },
            {
              "internalType": "uint256",
              "name": "timestamp",
              "type": "uint256"
            }
          ],
          "internalType": "struct AutonomixDataShare.Event",
          "name": "",
          "type": "tuple"
        }
      ],
      "stateMutability": "view",
      "type": "function"
    },
    {
      "inputs": [
        {
          "internalType": "string",
          "name": "_vehicleId",
          "type": "string"
        },
        {
          "internalType": "string",
          "name": "_eventType",
          "type": "string"
        },
        {
          "internalType": "string",
          "name": "_ipfsHash",
          "type": "string"
        }
      ],
      "name": "logEvent",
      "outputs": [],
      "stateMutability": "nonpayable",
      "type": "function"
    },
    {
      "inputs": [],
      "name": "totalEvents",
      "outputs": [
        {
          "internalType": "uint256",
          "name": "",
          "type": "uint256"
        }
      ],
      "stateMutability": "view",
      "type": "function"
    }
  ],
  "bytecode": "0x608060405234801561001057600080fd5b50610e21806100206000396000f3fe608060405234801561001057600080fd5b506004361061004c5760003560e01c80630b791430146100515780636d1884e01461008457806391ef0690146100b4578063ba870686146100d0575b600080fd5b61006b60048036038101906100669190610669565b6100ee565b60405161007b9493929190610735565b60405180910390f35b61009e60048036038101906100999190610669565b6102c6565b6040516100ab9190610859565b60405180910390f35b6100ce60048036038101906100c991906109b0565b610509565b005b6100d86105eb565b6040516100e59190610a57565b60405180910390f35b600081815481106100fe57600080fd5b906000526020600020906004020160009150905080600001805461012190610aa1565b80601f016020809104026020016040519081016040528092919081815260200182805461014d90610aa1565b801561019a5780601f1061016f5761010080835404028352916020019161019a565b820191906000526020600020905b81548152906001019060200180831161017d57829003601f168201915b5050505050908060010180546101af90610aa1565b80601f01602080910402602001604051908101604052809291908181526020018280546101db90610aa1565b80156102285780601f106101fd57610100808354040283529160200191610228565b820191906000526020600020905b81548152906001019060200180831161020b57829003601f168201915b50505050509080600201805461023d90610aa1565b80601f016020809104026020016040519081016040528092919081815260200182805461026990610aa1565b80156102b65780601f1061028b576101008083540402835291602001916102b6565b820191906000526020600020905b81548152906001019060200180831161029957829003601f168201915b5050505050908060030154905084565b6102ce6105f7565b6000805490508210610315576040517f08c379a000000000000000000000000000000000000000000000000000000000815260040161030c90610b1e565b60405180910390fd5b6000828154811061032957610328610b3e565b5b906000526020600020906004020160405180608001604052908160008201805461035290610aa1565b80601f016020809104026020016040519081016040528092919081815260200182805461037e90610aa1565b80156103cb5780601f106103a0576101008083540402835291602001916103cb565b820191906000526020600020905b8154815290600101906020018083116103ae57829003601f168201915b505050505081526020016001820180546103e490610aa1565b80601f016020809104026020016040519081016040528092919081815260200182805461041090610aa1565b801561045d5780601f106104325761010080835404028352916020019161045d565b820191906000526020600020905b81548152906001019060200180831161044057829003601f168201915b5050505050815260200160028201805461047690610aa1565b80601f01602080910402602001604051908101604052809291908181526020018280546104a290610aa1565b80156104ef5780601f106104c4576101008083540402835291602001916104ef565b820191906000526020600020905b8154815290600101906020018083116104d257829003601f168201915b505050505081526020016003820154815250509050919050565b600060405180608001604052808581526020018481526020018381526020014281525090506000819080600181540180825580915050600190039060005260206000209060040201600090919091909150600082015181600001908161056f9190610d19565b5060208201518160010190816105859190610d19565b50604082015181600201908161059b9190610d19565b506060820151816003015550507f4ad0ac58b669c707c14b0ac730f43386ceb839667eca9fa4fe2b01aa42a8aa9d848484426040516105dd9493929190610735565b60405180910390a150505050565b60008080549050905090565b6040518060800160405280606081526020016060815260200160608152602001600081525090565b6000604051905090565b600080fd5b600080fd5b6000819050919050565b61064681610633565b811461065157600080fd5b50565b6000813590506106638161063d565b92915050565b60006020828403121561067f5761067e610629565b5b600061068d84828501610654565b91505092915050565b600081519050919050565b600082825260208201905092915050565b60005b838110156106d05780820151818401526020810190506106b5565b60008484015250505050565b6000601f19601f8301169050919050565b60006106f882610696565b61070281856106a1565b93506107128185602086016106b2565b61071b816106dc565b840191505092915050565b61072f81610633565b82525050565b6000608082019050818103600083015261074f81876106ed565b9050818103602083015261076381866106ed565b9050818103604083015261077781856106ed565b90506107866060830184610726565b95945050505050565b600082825260208201905092915050565b60006107ab82610696565b6107b5818561078f565b93506107c58185602086016106b2565b6107ce816106dc565b840191505092915050565b6107e281610633565b82525050565b6000608083016000830151848203600086015261080582826107a0565b9150506020830151848203602086015261081f82826107a0565b9150506040830151848203604086015261083982826107a0565b915050606083015161084e60608601826107d9565b508091505092915050565b6000602082019050818103600083015261087381846107e8565b905092915050565b600080fd5b600080fd5b7f4e487b7100000000000000000000000000000000000000000000000000000000600052604160045260246000fd5b6108bd826106dc565b810181811067ffffffffffffffff821117156108dc576108db610885565b5b80604052505050565b60006108ef61061f565b90506108fb82826108b4565b919050565b600067ffffffffffffffff82111561091b5761091a610885565b5b610924826106dc565b9050602081019050919050565b82818337600083830152505050565b600061095361094e84610900565b6108e5565b90508281526020810184848401111561096f5761096e610880565b5b61097a848285610931565b509392505050565b600082601f8301126109975761099661087b565b5b81356109a7848260208601610940565b91505092915050565b6000806000606084860312156109c9576109c8610629565b5b600084013567ffffffffffffffff8111156109e7576109e661062e565b5b6109f386828701610982565b935050602084013567ffffffffffffffff811115610a1457610a1361062e565b5b610a2086828701610982565b925050604084013567ffffffffffffffff811115610a4157610a4061062e565b5b610a4d86828701610982565b9150509250925092565b6000602082019050610a6c6000830184610726565b92915050565b7f4e487b7100000000000000000000000000000000000000000000000000000000600052602260045260246000fd5b60006002820490506001821680610ab957607f821691505b602082108103610acc57610acb610a72565b5b50919050565b7f4576656e7420646f6573206e6f74206578697374000000000000000000000000600082015250565b6000610b086014836106a1565b9150610b1382610ad2565b602082019050919050565b60006020820190508181036000830152610b3781610afb565b9050919050565b7f4e487b7100000000000000000000000000000000000000000000000000000000600052603260045260246000fd5b60008190508160005260206000209050919050565b60006020601f8301049050919050565b600082821b905092915050565b600060088302610bcf7fffffffffffffffffffffffffffffffffffffffffffffffffffffffffffffffff82610b92565b610bd98683610b92565b95508019841693508086168417925050509392505050565b6000819050919050565b6000610c16610c11610c0c84610633565b610bf1565b610633565b9050919050565b6000819050919050565b610c3083610bfb565b610c44610c3c82610c1d565b848454610b9f565b825550505050565b600090565b610c59610c4c565b610c64818484610c27565b505050565b5b81811015610c8857610c7d600082610c51565b600181019050610c6a565b5050565b601f821115610ccd57610c9e81610b6d565b610ca784610b82565b81016020851015610cb6578190505b610cca610cc285610b82565b830182610c69565b50505b505050565b600082821c905092915050565b6000610cf060001984600802610cd2565b1980831691505092915050565b6000610d098383610cdf565b9150826002028217905092915050565b610d2282610696565b67ffffffffffffffff811115610d3b57610d3a610885565b5b610d458254610aa1565b610d50828285610c8c565b600060209050601f831160018114610d835760008415610d71578287015190505b610d7b8582610cfd565b865550610de3565b601f198416610d9186610b6d565b60005b82811015610db957848901518255600182019150602085019450602081019050610d94565b86831015610dd65784890151610dd2601f891682610cdf565b8355505b6001600288020188555050505b50505050505056fea2646970667358221220347625d905040f60927a9ca5438425259ed76745ac1af0d7930fb2a1ef5b89fa64736f6c63430008130033",
  "linkReferences": {},
  "deployedLinkReferences": {}
}