{
  "_format": "hh-sol-artifact-1",
  "contractName": "AutonomixDPoS",
  "sourceName": "contracts/AutonomixDPoS.sol",
  "abi": [
    {
      "inputs": [
        {
          "internalType": "address",
          "name": "_autoxTokenAddress",
          "type": "address"
        },
        {
          "internalType": "address",
          "name": "_treasuryAddress",
          "type": "address"
        }
      ],
      "stateMutability": "nonpayable",
      "type": "constructor"
    },
    {
      "inputs": [
        {
          "internalType": "address",
          "name": "owner",
          "type": "address"
        }
      ],
      "name": "OwnableInvalidOwner",
      "type": "error"
    },
    {
      "inputs": [
        {
          "internalType": "address",
          "name": "account",
          "type": "address"
        }
      ],
      "name": "OwnableUnauthorizedAccount",
      "type": "error"
    },
    {
      "anonymous": false,
      "inputs": [
        {
          "indexed": true,
          "internalType": "address",
          "name": "submitter",
          "type": "address"
        },
        {
          "indexed": true,
          "internalType": "bytes32",
          "name": "dataHash",
          "type": "bytes32"
        }
      ],
      "name": "DataSubmitted",
      "type": "event"
    },
    {
      "anonymous": false,
      "inputs": [
        {
          "indexed": true,
          "internalType": "bytes32",
          "name": "dataHash",
          "type": "bytes32"
        },
        {
          "indexed": false,
          "internalType": "bool",
          "name": "success",
          "type": "bool"
        }
      ],
      "name": "DataVerified",
      "type": "event"
    },
    {
      "anonymous": false,
      "inputs": [
        {
          "indexed": true,
          "internalType": "address",
          "name": "previousOwner",
          "type": "address"
        },
        {
          "indexed": true,
          "internalType": "address",
          "name": "newOwner",
          "type": "address"
        }
      ],
      "name": "OwnershipTransferred",
      "type": "event"
    },
    {
      "anonymous": false,
      "inputs": [
        {
          "indexed": false,
          "internalType": "uint256",
          "name": "totalReward",
          "type": "uint256"
        },
        {
          "indexed": false,
          "internalType": "uint256",
          "name": "validatorShare",
          "type": "uint256"
        },
        {
          "indexed": false,
          "internalType": "uint256",
          "name": "delegatorShare",
          "type": "uint256"
        },
        {
          "indexed": false,
          "internalType": "uint256",
          "name": "treasuryShare",
          "type": "uint256"
        }
      ],
      "name": "RewardsDistributed",
      "type": "event"
    },
    {
      "anonymous": false,
      "inputs": [
        {
          "indexed": true,
          "internalType": "address",
          "name": "delegator",
          "type": "address"
        },
        {
          "indexed": true,
          "internalType": "address",
          "name": "delegate",
          "type": "address"
        },
        {
          "indexed": false,
          "internalType": "uint256",
          "name": "amount",
          "type": "uint256"
        }
      ],
      "name": "Staked",
      "type": "event"
    },
    {
      "anonymous": false,
      "inputs": [
        {
          "indexed": true,
          "internalType": "address",
          "name": "delegator",
          "type": "address"
        },
        {
          "indexed": true,
          "internalType": "address",
          "name": "delegate",
          "type": "address"
        },
        {
          "indexed": false,
          "internalType": "uint256",
          "name": "amount",
          "type": "uint256"
        }
      ],
      "name": "Unstaked",
      "type": "event"
    },
    {
      "anonymous": false,
      "inputs": [
        {
          "indexed": true,
          "internalType": "address",
          "name": "validator",
          "type": "address"
        },
        {
          "indexed": false,
          "internalType": "uint256",
          "name": "penalty",
          "type": "uint256"
        }
      ],
      "name": "ValidatorSlashed",
      "type": "event"
    },
    {
      "anonymous": false,
      "inputs": [
        {
          "indexed": false,
          "internalType": "address[]",
          "name": "newValidators",
          "type": "address[]"
        }
      ],
      "name": "ValidatorsElected",
      "type": "event"
    },
    {
      "inputs": [],
      "name": "DELEGATOR_REWARD_PERCENTAGE",
      "outputs": [
        {
          "internalType": "uint256",
          "name": "",
          "type": "uint256"
        }
      ],
      "stateMutability": "view",
      "type": "function"
    },
    {
      "inputs": [],
      "name": "ELECTION_PERIOD_SECONDS",
      "outputs": [
        {
          "internalType": "uint256",
          "name": "",
          "type": "uint256"
        }
      ],
      "stateMutability": "view",
      "type": "function"
    },
    {
      "inputs": [],
      "name": "MAX_VALIDATORS",
      "outputs": [
        {
          "internalType": "uint256",
          "name": "",
          "type": "uint256"
        }
      ],
      "stateMutability": "view",
      "type": "function"
    },
    {
      "inputs": [],
      "name": "TREASURY_REWARD_PERCENTAGE",
      "outputs": [
        {
          "internalType": "uint256",
          "name": "",
          "type": "uint256"
        }
      ],
      "stateMutability": "view",
      "type": "function"
    },
    {
      "inputs": [],
      "name": "VALIDATOR_REWARD_PERCENTAGE",
      "outputs": [
        {
          "internalType": "uint256",
          "name": "",
          "type": "uint256"
        }
      ],
      "stateMutability": "view",
      "type": "function"
    },
    {
      "inputs": [
        {
          "internalType": "address",
          "name": "_validatorAddress",
          "type": "address"
        }
      ],
      "name": "addTestValidator",
      "outputs": [],
      "stateMutability": "nonpayable",
      "type": "function"
    },
    {
      "inputs": [],
      "name": "autoxToken",
      "outputs": [
        {
          "internalType": "contract AUTOXToken",
          "name": "",
          "type": "address"
        }
      ],
      "stateMutability": "view",
      "type": "function"
    },
    {
      "inputs": [
        {
          "internalType": "uint256",
          "name": "",
          "type": "uint256"
        }
      ],
      "name": "currentValidators",
      "outputs": [
        {
          "internalType": "address",
          "name": "",
          "type": "address"
        }
      ],
      "stateMutability": "view",
      "type": "function"
    },
    {
      "inputs": [
        {
          "internalType": "bytes32",
          "name": "",
          "type": "bytes32"
        }
      ],
      "name": "dataSubmissions",
      "outputs": [
        {
          "internalType": "address",
          "name": "submitter",
          "type": "address"
        },
        {
          "internalType": "bytes32",
          "name": "dataHash",
          "type": "bytes32"
        },
        {
          "internalType": "bool",
          "name": "verified",
          "type": "bool"
        }
      ],
      "stateMutability": "view",
      "type": "function"
    },
    {
      "inputs": [
        {
          "internalType": "address",
          "name": "",
          "type": "address"
        }
      ],
      "name": "delegates",
      "outputs": [
        {
          "internalType": "uint256",
          "name": "totalStaked",
          "type": "uint256"
        },
        {
          "internalType": "bool",
          "name": "isValidator",
          "type": "bool"
        },
        {
          "internalType": "uint256",
          "name": "totalRewards",
          "type": "uint256"
        }
      ],
      "stateMutability": "view",
      "type": "function"
    },
    {
      "inputs": [],
      "name": "distributeRewards",
      "outputs": [],
      "stateMutability": "nonpayable",
      "type": "function"
    },
    {
      "inputs": [],
      "name": "electValidators",
      "outputs": [],
      "stateMutability": "nonpayable",
      "type": "function"
    },
    {
      "inputs": [
        {
          "internalType": "address",
          "name": "_delegate",
          "type": "address"
        }
      ],
      "name": "getDelegateTotalStaked",
      "outputs": [
        {
          "internalType": "uint256",
          "name": "",
          "type": "uint256"
        }
      ],
      "stateMutability": "view",
      "type": "function"
    },
    {
      "inputs": [
        {
          "internalType": "address",
          "name": "_delegate",
          "type": "address"
        },
        {
          "internalType": "address",
          "name": "_delegator",
          "type": "address"
        }
      ],
      "name": "getDelegatorStake",
      "outputs": [
        {
          "internalType": "uint256",
          "name": "",
          "type": "uint256"
        }
      ],
      "stateMutability": "view",
      "type": "function"
    },
    {
      "inputs": [],
      "name": "getcurrentValidators",
      "outputs": [
        {
          "internalType": "address[]",
          "name": "",
          "type": "address[]"
        }
      ],
      "stateMutability": "view",
      "type": "function"
    },
    {
      "inputs": [
        {
          "internalType": "address",
          "name": "_addr",
          "type": "address"
        }
      ],
      "name": "isCurrentValidator",
      "outputs": [
        {
          "internalType": "bool",
          "name": "",
          "type": "bool"
        }
      ],
      "stateMutability": "view",
      "type": "function"
    },
    {
      "inputs": [],
      "name": "lastElectionTime",
      "outputs": [
        {
          "internalType": "uint256",
          "name": "",
          "type": "uint256"
        }
      ],
      "stateMutability": "view",
      "type": "function"
    },
    {
      "inputs": [],
      "name": "owner",
      "outputs": [
        {
          "internalType": "address",
          "name": "",
          "type": "address"
        }
      ],
      "stateMutability": "view",
      "type": "function"
    },
    {
      "inputs": [
        {
          "internalType": "uint256",
          "name": "",
          "type": "uint256"
        }
      ],
      "name": "registeredDelegates",
      "outputs": [
        {
          "internalType": "address",
          "name": "",
          "type": "address"
        }
      ],
      "stateMutability": "view",
      "type": "function"
    },
    {
      "inputs": [],
      "name": "renounceOwnership",
      "outputs": [],
      "stateMutability": "nonpayable",
      "type": "function"
    },
    {
      "inputs": [
        {
          "internalType": "address",
          "name": "",
          "type": "address"
        }
      ],
      "name": "reputation",
      "outputs": [
        {
          "internalType": "uint256",
          "name": "",
          "type": "uint256"
        }
      ],
      "stateMutability": "view",
      "type": "function"
    },
    {
      "inputs": [
        {
          "internalType": "address",
          "name": "_validator",
          "type": "address"
        },
        {
          "internalType": "uint256",
          "name": "_penalty",
          "type": "uint256"
        }
      ],
      "name": "slashValidator",
      "outputs": [],
      "stateMutability": "nonpayable",
      "type": "function"
    },
    {
      "inputs": [
        {
          "internalType": "address",
          "name": "_delegate",
          "type": "address"
        },
        {
          "internalType": "uint256",
          "name": "_amount",
          "type": "uint256"
        }
      ],
      "name": "stake",
      "outputs": [],
      "stateMutability": "nonpayable",
      "type": "function"
    },
    {
      "inputs": [
        {
          "internalType": "bytes32",
          "name": "_dataHash",
          "type": "bytes32"
        }
      ],
      "name": "submitData",
      "outputs": [],
      "stateMutability": "nonpayable",
      "type": "function"
    },
    {
      "inputs": [
        {
          "internalType": "address",
          "name": "newOwner",
          "type": "address"
        }
      ],
      "name": "transferOwnership",
      "outputs": [],
      "stateMutability": "nonpayable",
      "type": "function"
    },
    {
      "inputs": [],
      "name": "treasuryAddress",
      "outputs": [
        {
          "internalType": "address",
          "name": "",
          "type": "address"
        }
      ],
      "stateMutability": "view",
      "type": "function"
    },
    {
      "inputs": [
        {
          "internalType": "address",
          "name": "_delegate",
          "type": "address"
        },
        {
          "internalType": "uint256",
          "name": "_amount",
          "type": "uint256"
        }
      ],
      "name": "unstake",
      "outputs": [],
      "stateMutability": "nonpayable",
      "type": "function"
    },
    {
      "inputs": [
        {
          "internalType": "bytes32",
          "name": "_dataHash",
          "type": "bytes32"
        },
        {
          "internalType": "bool",
          "name": "_valid",
          "type": "bool"
        }
      ],
      "name": "verifyData",
      "outputs": [],
      "stateMutability": "nonpayable",
      "type": "function"
    }
  ],
  "bytecode": "0x60806040523480156200001157600080fd5b5060405162003c1838038062003c1883398181016040528101906200003791906200027e565b33600073ffffffffffffffffffffffffffffffffffffffff168173ffffffffffffffffffffffffffffffffffffffff1603620000ad5760006040517f1e4fbdf7000000000000000000000000000000000000000000000000000000008152600401620000a49190620002d6565b60405180910390fd5b620000be816200015060201b60201c565b5081600160006101000a81548173ffffffffffffffffffffffffffffffffffffffff021916908373ffffffffffffffffffffffffffffffffffffffff16021790555080600660006101000a81548173ffffffffffffffffffffffffffffffffffffffff021916908373ffffffffffffffffffffffffffffffffffffffff160217905550426005819055505050620002f3565b60008060009054906101000a900473ffffffffffffffffffffffffffffffffffffffff169050816000806101000a81548173ffffffffffffffffffffffffffffffffffffffff021916908373ffffffffffffffffffffffffffffffffffffffff1602179055508173ffffffffffffffffffffffffffffffffffffffff168173ffffffffffffffffffffffffffffffffffffffff167f8be0079c531659141344cd1fd0a4f28419497f9722a3daafe3b4186f6b6457e060405160405180910390a35050565b600080fd5b600073ffffffffffffffffffffffffffffffffffffffff82169050919050565b6000620002468262000219565b9050919050565b620002588162000239565b81146200026457600080fd5b50565b60008151905062000278816200024d565b92915050565b6000806040838503121562000298576200029762000214565b5b6000620002a88582860162000267565b9250506020620002bb8582860162000267565b9150509250929050565b620002d08162000239565b82525050565b6000602082019050620002ed6000830184620002c5565b92915050565b61391580620003036000396000f3fe608060405234801561001057600080fd5b50600436106101c45760003560e01c80638da5cb5b116100f9578063bb985d7d11610097578063cbafc40f11610071578063cbafc40f146104e7578063cd928de914610505578063d1a89fde14610523578063f2fde38b1461053f576101c4565b8063bb985d7d14610491578063c2a672e0146104ad578063c5f956af146104c9576101c4565b8063adc9772e116100d3578063adc9772e1461040b578063b28b494614610427578063b3bdcb9814610445578063b9f7945114610461576101c4565b80638da5cb5b1461038d578063900eb5a8146103ab5780639d0b5e58146103db576101c4565b8063587cde1e11610166578063714897df11610140578063714897df14610303578063715018a6146103215780637e80b0951461032b57806382c98de91461035b576101c4565b8063587cde1e146102a957806363b800f2146102db5780636f4a2cd0146102f9576101c4565b80633e4208ef116101a25780633e4208ef1461020f5780635028e2e11461022b578063539964c61461025b57806355614fcc14610279576101c4565b8063091c96ee146101c95780630b64f1ff146101e75780630eb1b586146101f1575b600080fd5b6101d161055b565b6040516101de9190612a36565b60405180910390f35b6101ef6105e9565b005b6101f9610b37565b6040516102069190612a71565b60405180910390f35b61022960048036038101906102249190612ae9565b610b3d565b005b61024560048036038101906102409190612b29565b610e15565b6040516102529190612a71565b60405180910390f35b610263610e9f565b6040516102709190612a71565b60405180910390f35b610293600480360381019061028e9190612b69565b610ea4565b6040516102a09190612bb1565b60405180910390f35b6102c360048036038101906102be9190612b69565b610f52565b6040516102d293929190612bcc565b60405180910390f35b6102e3610f89565b6040516102f09190612c62565b60405180910390f35b610301610faf565b005b61030b611523565b6040516103189190612a71565b60405180910390f35b610329611528565b005b61034560048036038101906103409190612b69565b61153c565b6040516103529190612a71565b60405180910390f35b61037560048036038101906103709190612cb3565b611588565b60405161038493929190612cfe565b60405180910390f35b6103956115df565b6040516103a29190612d35565b60405180910390f35b6103c560048036038101906103c09190612d50565b611608565b6040516103d29190612d35565b60405180910390f35b6103f560048036038101906103f09190612d50565b611647565b6040516104029190612d35565b60405180910390f35b61042560048036038101906104209190612ae9565b611686565b005b61042f611a3c565b60405161043c9190612a71565b60405180910390f35b61045f600480360381019061045a9190612da9565b611a43565b005b61047b60048036038101906104769190612b69565b611cc0565b6040516104889190612a71565b60405180910390f35b6104ab60048036038101906104a69190612cb3565b611cd8565b005b6104c760048036038101906104c29190612ae9565b611e1f565b005b6104d1612333565b6040516104de9190612d35565b60405180910390f35b6104ef612359565b6040516104fc9190612a71565b60405180910390f35b61050d61235e565b60405161051a9190612a71565b60405180910390f35b61053d60048036038101906105389190612b69565b612363565b005b61055960048036038101906105549190612b69565b6124e6565b005b606060048054806020026020016040519081016040528092919081815260200182805480156105df57602002820191906000526020600020905b8160009054906101000a900473ffffffffffffffffffffffffffffffffffffffff1673ffffffffffffffffffffffffffffffffffffffff1681526020019060010190808311610595575b5050505050905090565b6105f161256c565b62093a806005546106029190612e18565b421015610644576040517f08c379a000000000000000000000000000000000000000000000000000000000815260040161063b90612ea9565b60405180910390fd5b60005b600480549050811015610700576000600260006004848154811061066e5761066d612ec9565b5b9060005260206000200160009054906101000a900473ffffffffffffffffffffffffffffffffffffffff1673ffffffffffffffffffffffffffffffffffffffff1673ffffffffffffffffffffffffffffffffffffffff16815260200190815260200160002060020160006101000a81548160ff02191690831515021790555080806106f890612ef8565b915050610647565b50600067ffffffffffffffff81111561071c5761071b612f40565b5b60405190808252806020026020018201604052801561074a5781602001602082028036833780820191505090505b506004908051906020019061076092919061289f565b50600060038054806020026020016040519081016040528092919081815260200182805480156107e557602002820191906000526020600020905b8160009054906101000a900473ffffffffffffffffffffffffffffffffffffffff1673ffffffffffffffffffffffffffffffffffffffff168152602001906001019080831161079b575b5050505050905060005b81518110156109d15760006001826108079190612e18565b90505b82518110156109bd576002600084838151811061082a57610829612ec9565b5b602002602001015173ffffffffffffffffffffffffffffffffffffffff1673ffffffffffffffffffffffffffffffffffffffff168152602001908152602001600020600001546002600085858151811061088757610886612ec9565b5b602002602001015173ffffffffffffffffffffffffffffffffffffffff1673ffffffffffffffffffffffffffffffffffffffff1681526020019081526020016000206000015410156109aa5760008383815181106108e8576108e7612ec9565b5b6020026020010151905083828151811061090557610904612ec9565b5b60200260200101518484815181106109205761091f612ec9565b5b602002602001019073ffffffffffffffffffffffffffffffffffffffff16908173ffffffffffffffffffffffffffffffffffffffff16815250508084838151811061096e5761096d612ec9565b5b602002602001019073ffffffffffffffffffffffffffffffffffffffff16908173ffffffffffffffffffffffffffffffffffffffff1681525050505b80806109b590612ef8565b91505061080a565b5080806109c990612ef8565b9150506107ef565b5060005b8151811080156109ea57506015600480549050105b15610af4576004828281518110610a0457610a03612ec9565b5b60200260200101519080600181540180825580915050600190039060005260206000200160009091909190916101000a81548173ffffffffffffffffffffffffffffffffffffffff021916908373ffffffffffffffffffffffffffffffffffffffff160217905550600160026000848481518110610a8557610a84612ec9565b5b602002602001015173ffffffffffffffffffffffffffffffffffffffff1673ffffffffffffffffffffffffffffffffffffffff16815260200190815260200160002060020160006101000a81548160ff0219169083151502179055508080610aec90612ef8565b9150506109d5565b50426005819055507f9f22bcf9ed8374df04282369326796a9739365b05bded9ea71a762beece470ff6004604051610b2c919061305b565b60405180910390a150565b60055481565b610b4561256c565b80600260008473ffffffffffffffffffffffffffffffffffffffff1673ffffffffffffffffffffffffffffffffffffffff168152602001908152602001600020600001541015610bca576040517f08c379a0000000000000000000000000000000000000000000000000000000008152600401610bc1906130c9565b60405180910390fd5b80600260008473ffffffffffffffffffffffffffffffffffffffff1673ffffffffffffffffffffffffffffffffffffffff1681526020019081526020016000206000016000828254610c1c91906130e9565b92505081905550600160009054906101000a900473ffffffffffffffffffffffffffffffffffffffff1673ffffffffffffffffffffffffffffffffffffffff1663a9059cbb600660009054906101000a900473ffffffffffffffffffffffffffffffffffffffff16836040518363ffffffff1660e01b8152600401610ca292919061311d565b6020604051808303816000875af1158015610cc1573d6000803e3d6000fd5b505050506040513d601f19601f82011682018060405250810190610ce5919061315b565b610d24576040517f08c379a0000000000000000000000000000000000000000000000000000000008152600401610d1b906131d4565b60405180910390fd5b6032600860008473ffffffffffffffffffffffffffffffffffffffff1673ffffffffffffffffffffffffffffffffffffffff1681526020019081526020016000205410610dc3576032600860008473ffffffffffffffffffffffffffffffffffffffff1673ffffffffffffffffffffffffffffffffffffffff1681526020019081526020016000206000828254610dbb91906130e9565b925050819055505b8173ffffffffffffffffffffffffffffffffffffffff167f17bddadfd7ec8898c3b9eadd0cf5ae77ba8d5df3a50e96ab86ec2dd711aa8fbb82604051610e099190612a71565b60405180910390a25050565b6000600260008473ffffffffffffffffffffffffffffffffffffffff1673ffffffffffffffffffffffffffffffffffffffff16815260200190815260200160002060010160008373ffffffffffffffffffffffffffffffffffffffff1673ffffffffffffffffffffffffffffffffffffffff16815260200190815260200160002054905092915050565b601481565b600080600090505b600480549050811015610f47578273ffffffffffffffffffffffffffffffffffffffff1660048281548110610ee457610ee3612ec9565b5b9060005260206000200160009054906101000a900473ffffffffffffffffffffffffffffffffffffffff1673ffffffffffffffffffffffffffffffffffffffff1603610f34576001915050610f4d565b8080610f3f90612ef8565b915050610eac565b50600090505b919050565b60026020528060005260406000206000915090508060000154908060020160009054906101000a900460ff16908060030154905083565b600160009054906101000a900473ffffffffffffffffffffffffffffffffffffffff1681565b6000600a600160009054906101000a900473ffffffffffffffffffffffffffffffffffffffff1673ffffffffffffffffffffffffffffffffffffffff166370a08231306040518263ffffffff1660e01b815260040161100e9190612d35565b602060405180830381865afa15801561102b573d6000803e3d6000fd5b505050506040513d601f19601f8201168201806040525081019061104f9190613209565b6110599190613265565b90506000811161109e576040517f08c379a0000000000000000000000000000000000000000000000000000000008152600401611095906132e2565b60405180910390fd5b600060646046836110af9190613302565b6110b99190613265565b9050600060646014846110cc9190613302565b6110d69190613265565b905060006064600a856110e99190613302565b6110f39190613265565b9050600160009054906101000a900473ffffffffffffffffffffffffffffffffffffffff1673ffffffffffffffffffffffffffffffffffffffff1663a9059cbb600660009054906101000a900473ffffffffffffffffffffffffffffffffffffffff16836040518363ffffffff1660e01b815260040161117492919061311d565b6020604051808303816000875af1158015611193573d6000803e3d6000fd5b505050506040513d601f19601f820116820180604052508101906111b7919061315b565b6111f6576040517f08c379a00000000000000000000000000000000000000000000000000000000081526004016111ed90613390565b60405180910390fd5b6000805b6004805490508110156112a857600260006004838154811061121f5761121e612ec9565b5b9060005260206000200160009054906101000a900473ffffffffffffffffffffffffffffffffffffffff1673ffffffffffffffffffffffffffffffffffffffff1673ffffffffffffffffffffffffffffffffffffffff16815260200190815260200160002060000154826112939190612e18565b915080806112a090612ef8565b9150506111fa565b5060005b6004805490508110156114de576000600482815481106112cf576112ce612ec9565b5b9060005260206000200160009054906101000a900473ffffffffffffffffffffffffffffffffffffffff1690506000600260008373ffffffffffffffffffffffffffffffffffffffff1673ffffffffffffffffffffffffffffffffffffffff16815260200190815260200160002060000154905060008482896113529190613302565b61135c9190613265565b9050600085838961136d9190613302565b6113779190613265565b9050600160009054906101000a900473ffffffffffffffffffffffffffffffffffffffff1673ffffffffffffffffffffffffffffffffffffffff1663a9059cbb8583856113c49190612e18565b6040518363ffffffff1660e01b81526004016113e192919061311d565b6020604051808303816000875af1158015611400573d6000803e3d6000fd5b505050506040513d601f19601f82011682018060405250810190611424919061315b565b611463576040517f08c379a000000000000000000000000000000000000000000000000000000000815260040161145a906133fc565b60405180910390fd5b808261146f9190612e18565b600260008673ffffffffffffffffffffffffffffffffffffffff1673ffffffffffffffffffffffffffffffffffffffff16815260200190815260200160002060030160008282546114c09190612e18565b925050819055505050505080806114d690612ef8565b9150506112ac565b507ff05b0b8458b89503ca56b18429a7b1ecd2f7f2d6d5eba936da3791b6b078bc7885858585604051611514949392919061341c565b60405180910390a15050505050565b601581565b61153061256c565b61153a60006125f3565b565b6000600260008373ffffffffffffffffffffffffffffffffffffffff1673ffffffffffffffffffffffffffffffffffffffff168152602001908152602001600020600001549050919050565b60076020528060005260406000206000915090508060000160009054906101000a900473ffffffffffffffffffffffffffffffffffffffff16908060010154908060020160009054906101000a900460ff16905083565b60008060009054906101000a900473ffffffffffffffffffffffffffffffffffffffff16905090565b6004818154811061161857600080fd5b906000526020600020016000915054906101000a900473ffffffffffffffffffffffffffffffffffffffff1681565b6003818154811061165757600080fd5b906000526020600020016000915054906101000a900473ffffffffffffffffffffffffffffffffffffffff1681565b600081116116c9576040517f08c379a00000000000000000000000000000000000000000000000000000000081526004016116c0906134d3565b60405180910390fd5b600160009054906101000a900473ffffffffffffffffffffffffffffffffffffffff1673ffffffffffffffffffffffffffffffffffffffff166323b872dd3330846040518463ffffffff1660e01b8152600401611728939291906134f3565b6020604051808303816000875af1158015611747573d6000803e3d6000fd5b505050506040513d601f19601f8201168201806040525081019061176b919061315b565b6117aa576040517f08c379a00000000000000000000000000000000000000000000000000000000081526004016117a190613576565b60405180910390fd5b6000600260008473ffffffffffffffffffffffffffffffffffffffff1673ffffffffffffffffffffffffffffffffffffffff1681526020019081526020016000206000015414801561187b57506000600260008473ffffffffffffffffffffffffffffffffffffffff1673ffffffffffffffffffffffffffffffffffffffff16815260200190815260200160002060010160003373ffffffffffffffffffffffffffffffffffffffff1673ffffffffffffffffffffffffffffffffffffffff16815260200190815260200160002054145b156118e4576003829080600181540180825580915050600190039060005260206000200160009091909190916101000a81548173ffffffffffffffffffffffffffffffffffffffff021916908373ffffffffffffffffffffffffffffffffffffffff1602179055505b80600260008473ffffffffffffffffffffffffffffffffffffffff1673ffffffffffffffffffffffffffffffffffffffff16815260200190815260200160002060000160008282546119369190612e18565b9250508190555080600260008473ffffffffffffffffffffffffffffffffffffffff1673ffffffffffffffffffffffffffffffffffffffff16815260200190815260200160002060010160003373ffffffffffffffffffffffffffffffffffffffff1673ffffffffffffffffffffffffffffffffffffffff16815260200190815260200160002060008282546119cc9190612e18565b925050819055508173ffffffffffffffffffffffffffffffffffffffff163373ffffffffffffffffffffffffffffffffffffffff167f5dac0c1b1112564a045ba943c9d50270893e8e826c49be8e7073adc713ab7bd783604051611a309190612a71565b60405180910390a35050565b62093a8081565b600260003373ffffffffffffffffffffffffffffffffffffffff1673ffffffffffffffffffffffffffffffffffffffff16815260200190815260200160002060020160009054906101000a900460ff16611ad2576040517f08c379a0000000000000000000000000000000000000000000000000000000008152600401611ac9906135e2565b60405180910390fd5b600073ffffffffffffffffffffffffffffffffffffffff166007600084815260200190815260200160002060000160009054906101000a900473ffffffffffffffffffffffffffffffffffffffff1673ffffffffffffffffffffffffffffffffffffffff1603611b77576040517f08c379a0000000000000000000000000000000000000000000000000000000008152600401611b6e9061364e565b60405180910390fd5b6007600083815260200190815260200160002060020160009054906101000a900460ff1615611bdb576040517f08c379a0000000000000000000000000000000000000000000000000000000008152600401611bd2906136ba565b60405180910390fd5b60016007600084815260200190815260200160002060020160006101000a81548160ff0219169083151502179055508015611c2057611c1b3360016126b7565b611c84565b611c2b3360006126b7565b611c8333600a600260003373ffffffffffffffffffffffffffffffffffffffff1673ffffffffffffffffffffffffffffffffffffffff16815260200190815260200160002060000154611c7e9190613265565b610b3d565b5b817fee7761497838e6fe8aa3859ef53f7e3842149851e8064fc426810583049304a282604051611cb49190612bb1565b60405180910390a25050565b60086020528060005260406000206000915090505481565b6000801b8103611d1d576040517f08c379a0000000000000000000000000000000000000000000000000000000008152600401611d1490613726565b60405180910390fd5b60405180606001604052803373ffffffffffffffffffffffffffffffffffffffff168152602001828152602001600015158152506007600083815260200190815260200160002060008201518160000160006101000a81548173ffffffffffffffffffffffffffffffffffffffff021916908373ffffffffffffffffffffffffffffffffffffffff1602179055506020820151816001015560408201518160020160006101000a81548160ff021916908315150217905550905050803373ffffffffffffffffffffffffffffffffffffffff167f138e8be20fb477316c82e05a0e2a8048c6e71923256d9e2393c5e8c3d8d8eacd60405160405180910390a350565b60008111611e62576040517f08c379a0000000000000000000000000000000000000000000000000000000008152600401611e59906137b8565b60405180910390fd5b80600260008473ffffffffffffffffffffffffffffffffffffffff1673ffffffffffffffffffffffffffffffffffffffff16815260200190815260200160002060010160003373ffffffffffffffffffffffffffffffffffffffff1673ffffffffffffffffffffffffffffffffffffffff168152602001908152602001600020541015611f24576040517f08c379a0000000000000000000000000000000000000000000000000000000008152600401611f1b90613824565b60405180910390fd5b80600260008473ffffffffffffffffffffffffffffffffffffffff1673ffffffffffffffffffffffffffffffffffffffff1681526020019081526020016000206000016000828254611f7691906130e9565b9250508190555080600260008473ffffffffffffffffffffffffffffffffffffffff1673ffffffffffffffffffffffffffffffffffffffff16815260200190815260200160002060010160003373ffffffffffffffffffffffffffffffffffffffff1673ffffffffffffffffffffffffffffffffffffffff168152602001908152602001600020600082825461200c91906130e9565b92505081905550600160009054906101000a900473ffffffffffffffffffffffffffffffffffffffff1673ffffffffffffffffffffffffffffffffffffffff1663a9059cbb33836040518363ffffffff1660e01b815260040161207092919061311d565b6020604051808303816000875af115801561208f573d6000803e3d6000fd5b505050506040513d601f19601f820116820180604052508101906120b3919061315b565b6120f2576040517f08c379a00000000000000000000000000000000000000000000000000000000081526004016120e990613576565b60405180910390fd5b8173ffffffffffffffffffffffffffffffffffffffff163373ffffffffffffffffffffffffffffffffffffffff167fd8654fcc8cf5b36d30b3f5e4688fc78118e6d68de60b9994e09902268b57c3e38360405161214f9190612a71565b60405180910390a36000600260008473ffffffffffffffffffffffffffffffffffffffff1673ffffffffffffffffffffffffffffffffffffffff168152602001908152602001600020600001540361232f5760005b60038054905081101561232d578273ffffffffffffffffffffffffffffffffffffffff16600382815481106121dc576121db612ec9565b5b9060005260206000200160009054906101000a900473ffffffffffffffffffffffffffffffffffffffff1673ffffffffffffffffffffffffffffffffffffffff160361231a576003600160038054905061223691906130e9565b8154811061224757612246612ec9565b5b9060005260206000200160009054906101000a900473ffffffffffffffffffffffffffffffffffffffff166003828154811061228657612285612ec9565b5b9060005260206000200160006101000a81548173ffffffffffffffffffffffffffffffffffffffff021916908373ffffffffffffffffffffffffffffffffffffffff16021790555060038054806122e0576122df613844565b5b6001900381819060005260206000200160006101000a81549073ffffffffffffffffffffffffffffffffffffffff0219169055905561232d565b808061232590612ef8565b9150506121a4565b505b5050565b600660009054906101000a900473ffffffffffffffffffffffffffffffffffffffff1681565b600a81565b604681565b61236b61256c565b600073ffffffffffffffffffffffffffffffffffffffff168173ffffffffffffffffffffffffffffffffffffffff16036123da576040517f08c379a00000000000000000000000000000000000000000000000000000000081526004016123d1906138bf565b60405180910390fd5b6000600260008373ffffffffffffffffffffffffffffffffffffffff1673ffffffffffffffffffffffffffffffffffffffff1681526020019081526020016000206000015403612488576003819080600181540180825580915050600190039060005260206000200160009091909190916101000a81548173ffffffffffffffffffffffffffffffffffffffff021916908373ffffffffffffffffffffffffffffffffffffffff1602179055505b6001600260008373ffffffffffffffffffffffffffffffffffffffff1673ffffffffffffffffffffffffffffffffffffffff16815260200190815260200160002060020160006101000a81548160ff02191690831515021790555050565b6124ee61256c565b600073ffffffffffffffffffffffffffffffffffffffff168173ffffffffffffffffffffffffffffffffffffffff16036125605760006040517f1e4fbdf70000000000000000000000000000000000000000000000000000000081526004016125579190612d35565b60405180910390fd5b612569816125f3565b50565b612574612897565b73ffffffffffffffffffffffffffffffffffffffff166125926115df565b73ffffffffffffffffffffffffffffffffffffffff16146125f1576125b5612897565b6040517f118cdaa70000000000000000000000000000000000000000000000000000000081526004016125e89190612d35565b60405180910390fd5b565b60008060009054906101000a900473ffffffffffffffffffffffffffffffffffffffff169050816000806101000a81548173ffffffffffffffffffffffffffffffffffffffff021916908373ffffffffffffffffffffffffffffffffffffffff1602179055508173ffffffffffffffffffffffffffffffffffffffff168173ffffffffffffffffffffffffffffffffffffffff167f8be0079c531659141344cd1fd0a4f28419497f9722a3daafe3b4186f6b6457e060405160405180910390a35050565b80156127a957600a600860008473ffffffffffffffffffffffffffffffffffffffff1673ffffffffffffffffffffffffffffffffffffffff168152602001908152602001600020600082825461270d9190612e18565b925050819055506103e8600860008473ffffffffffffffffffffffffffffffffffffffff1673ffffffffffffffffffffffffffffffffffffffff1681526020019081526020016000205411156127a4576103e8600860008473ffffffffffffffffffffffffffffffffffffffff1673ffffffffffffffffffffffffffffffffffffffff168152602001908152602001600020819055505b612893565b6014600860008473ffffffffffffffffffffffffffffffffffffffff1673ffffffffffffffffffffffffffffffffffffffff168152602001908152602001600020541061284c576014600860008473ffffffffffffffffffffffffffffffffffffffff1673ffffffffffffffffffffffffffffffffffffffff168152602001908152602001600020600082825461284091906130e9565b92505081905550612892565b6000600860008473ffffffffffffffffffffffffffffffffffffffff1673ffffffffffffffffffffffffffffffffffffffff168152602001908152602001600020819055505b5b5050565b600033905090565b828054828255906000526020600020908101928215612918579160200282015b828111156129175782518260006101000a81548173ffffffffffffffffffffffffffffffffffffffff021916908373ffffffffffffffffffffffffffffffffffffffff160217905550916020019190600101906128bf565b5b5090506129259190612929565b5090565b5b8082111561294257600081600090555060010161292a565b5090565b600081519050919050565b600082825260208201905092915050565b6000819050602082019050919050565b600073ffffffffffffffffffffffffffffffffffffffff82169050919050565b600061299d82612972565b9050919050565b6129ad81612992565b82525050565b60006129bf83836129a4565b60208301905092915050565b6000602082019050919050565b60006129e382612946565b6129ed8185612951565b93506129f883612962565b8060005b83811015612a29578151612a1088826129b3565b9750612a1b836129cb565b9250506001810190506129fc565b5085935050505092915050565b60006020820190508181036000830152612a5081846129d8565b905092915050565b6000819050919050565b612a6b81612a58565b82525050565b6000602082019050612a866000830184612a62565b92915050565b600080fd5b612a9a81612992565b8114612aa557600080fd5b50565b600081359050612ab781612a91565b92915050565b612ac681612a58565b8114612ad157600080fd5b50565b600081359050612ae381612abd565b92915050565b60008060408385031215612b0057612aff612a8c565b5b6000612b0e85828601612aa8565b9250506020612b1f85828601612ad4565b9150509250929050565b60008060408385031215612b4057612b3f612a8c565b5b6000612b4e85828601612aa8565b9250506020612b5f85828601612aa8565b9150509250929050565b600060208284031215612b7f57612b7e612a8c565b5b6000612b8d84828501612aa8565b91505092915050565b60008115159050919050565b612bab81612b96565b82525050565b6000602082019050612bc66000830184612ba2565b92915050565b6000606082019050612be16000830186612a62565b612bee6020830185612ba2565b612bfb6040830184612a62565b949350505050565b6000819050919050565b6000612c28612c23612c1e84612972565b612c03565b612972565b9050919050565b6000612c3a82612c0d565b9050919050565b6000612c4c82612c2f565b9050919050565b612c5c81612c41565b82525050565b6000602082019050612c776000830184612c53565b92915050565b6000819050919050565b612c9081612c7d565b8114612c9b57600080fd5b50565b600081359050612cad81612c87565b92915050565b600060208284031215612cc957612cc8612a8c565b5b6000612cd784828501612c9e565b91505092915050565b612ce981612992565b82525050565b612cf881612c7d565b82525050565b6000606082019050612d136000830186612ce0565b612d206020830185612cef565b612d2d6040830184612ba2565b949350505050565b6000602082019050612d4a6000830184612ce0565b92915050565b600060208284031215612d6657612d65612a8c565b5b6000612d7484828501612ad4565b91505092915050565b612d8681612b96565b8114612d9157600080fd5b50565b600081359050612da381612d7d565b92915050565b60008060408385031215612dc057612dbf612a8c565b5b6000612dce85828601612c9e565b9250506020612ddf85828601612d94565b9150509250929050565b7f4e487b7100000000000000000000000000000000000000000000000000000000600052601160045260246000fd5b6000612e2382612a58565b9150612e2e83612a58565b9250828201905080821115612e4657612e45612de9565b5b92915050565b600082825260208201905092915050565b7f456c656374696f6e20706572696f64206e6f74206f7665722079657400000000600082015250565b6000612e93601c83612e4c565b9150612e9e82612e5d565b602082019050919050565b60006020820190508181036000830152612ec281612e86565b9050919050565b7f4e487b7100000000000000000000000000000000000000000000000000000000600052603260045260246000fd5b6000612f0382612a58565b91507fffffffffffffffffffffffffffffffffffffffffffffffffffffffffffffffff8203612f3557612f34612de9565b5b600182019050919050565b7f4e487b7100000000000000000000000000000000000000000000000000000000600052604160045260246000fd5b600081549050919050565b60008190508160005260206000209050919050565b60008160001c9050919050565b600073ffffffffffffffffffffffffffffffffffffffff82169050919050565b6000612fcf612fca83612f8f565b612f9c565b9050919050565b6000612fe28254612fbc565b9050919050565b6000600182019050919050565b600061300182612f6f565b61300b8185612951565b935061301683612f7a565b8060005b8381101561304e5761302b82612fd6565b61303588826129b3565b975061304083612fe9565b92505060018101905061301a565b5085935050505092915050565b600060208201905081810360008301526130758184612ff6565b905092915050565b7f496e73756666696369656e74207374616b6520746f20736c6173680000000000600082015250565b60006130b3601b83612e4c565b91506130be8261307d565b602082019050919050565b600060208201905081810360008301526130e2816130a6565b9050919050565b60006130f482612a58565b91506130ff83612a58565b925082820390508181111561311757613116612de9565b5b92915050565b60006040820190506131326000830185612ce0565b61313f6020830184612a62565b9392505050565b60008151905061315581612d7d565b92915050565b60006020828403121561317157613170612a8c565b5b600061317f84828501613146565b91505092915050565b7f536c617368207472616e73666572206661696c65640000000000000000000000600082015250565b60006131be601583612e4c565b91506131c982613188565b602082019050919050565b600060208201905081810360008301526131ed816131b1565b9050919050565b60008151905061320381612abd565b92915050565b60006020828403121561321f5761321e612a8c565b5b600061322d848285016131f4565b91505092915050565b7f4e487b7100000000000000000000000000000000000000000000000000000000600052601260045260246000fd5b600061327082612a58565b915061327b83612a58565b92508261328b5761328a613236565b5b828204905092915050565b7f4e6f207265776172647320746f20646973747269627574650000000000000000600082015250565b60006132cc601883612e4c565b91506132d782613296565b602082019050919050565b600060208201905081810360008301526132fb816132bf565b9050919050565b600061330d82612a58565b915061331883612a58565b925082820261332681612a58565b9150828204841483151761333d5761333c612de9565b5b5092915050565b7f5472656173757279207472616e73666572206661696c65640000000000000000600082015250565b600061337a601883612e4c565b915061338582613344565b602082019050919050565b600060208201905081810360008301526133a98161336d565b9050919050565b7f526577617264207472616e73666572206661696c656400000000000000000000600082015250565b60006133e6601683612e4c565b91506133f1826133b0565b602082019050919050565b60006020820190508181036000830152613415816133d9565b9050919050565b60006080820190506134316000830187612a62565b61343e6020830186612a62565b61344b6040830185612a62565b6134586060830184612a62565b95945050505050565b7f5374616b6520616d6f756e74206d75737420626520677265617465722074686160008201527f6e207a65726f0000000000000000000000000000000000000000000000000000602082015250565b60006134bd602683612e4c565b91506134c882613461565b604082019050919050565b600060208201905081810360008301526134ec816134b0565b9050919050565b60006060820190506135086000830186612ce0565b6135156020830185612ce0565b6135226040830184612a62565b949350505050565b7f546f6b656e207472616e73666572206661696c65640000000000000000000000600082015250565b6000613560601583612e4c565b915061356b8261352a565b602082019050919050565b6000602082019050818103600083015261358f81613553565b9050919050565b7f4f6e6c792076616c696461746f722063616e2076657269667900000000000000600082015250565b60006135cc601983612e4c565b91506135d782613596565b602082019050919050565b600060208201905081810360008301526135fb816135bf565b9050919050565b7f44617461206e6f7420666f756e64000000000000000000000000000000000000600082015250565b6000613638600e83612e4c565b915061364382613602565b602082019050919050565b600060208201905081810360008301526136678161362b565b9050919050565b7f416c726561647920766572696669656400000000000000000000000000000000600082015250565b60006136a4601083612e4c565b91506136af8261366e565b602082019050919050565b600060208201905081810360008301526136d381613697565b9050919050565b7f496e76616c696420646174612068617368000000000000000000000000000000600082015250565b6000613710601183612e4c565b915061371b826136da565b602082019050919050565b6000602082019050818103600083015261373f81613703565b9050919050565b7f556e7374616b6520616d6f756e74206d7573742062652067726561746572207460008201527f68616e207a65726f000000000000000000000000000000000000000000000000602082015250565b60006137a2602883612e4c565b91506137ad82613746565b604082019050919050565b600060208201905081810360008301526137d181613795565b9050919050565b7f496e73756666696369656e74207374616b656420616d6f756e74000000000000600082015250565b600061380e601a83612e4c565b9150613819826137d8565b602082019050919050565b6000602082019050818103600083015261383d81613801565b9050919050565b7f4e487b7100000000000000000000000000000000000000000000000000000000600052603160045260246000fd5b7f496e76616c696420616464726573730000000000000000000000000000000000600082015250565b60006138a9600f83612e4c565b91506138b482613873565b602082019050919050565b600060208201905081810360008301526138d88161389c565b905091905056fea26469706673582212206ce33c9fab4024a17a7b58287d3323f655909249ed5e7dfce555867ac6bc57a164736f6c63430008140033",
  "linkReferences": {},
  "deployedLinkReferences": {}
}